{
  "address": "0x6dA6337C2C80c303A49805fb854c858D4A2447Ba",
  "abi": [
    {
      "inputs": [],
      "name": "AlreadyFinalized",
      "type": "error"
    },
    {
      "inputs": [],
      "name": "BondingTargetReached",
      "type": "error"
    },
    {
      "inputs": [],
      "name": "CannotFinalizeYet",
      "type": "error"
    },
    {
      "inputs": [],
      "name": "ContributionTooLow",
      "type": "error"
    },
    {
      "inputs": [],
      "name": "FailedCall",
      "type": "error"
    },
    {
      "inputs": [],
      "name": "InitializationFailed",
      "type": "error"
    },
    {
      "inputs": [
        {
          "internalType": "uint256",
          "name": "balance",
          "type": "uint256"
        },
        {
          "internalType": "uint256",
          "name": "needed",
          "type": "uint256"
        }
      ],
      "name": "InsufficientBalance",
      "type": "error"
    },
    {
      "inputs": [],
      "name": "InsufficientETH",
      "type": "error"
    },
    {
      "inputs": [],
      "name": "InsufficientTokens",
      "type": "error"
    },
    {
      "inputs": [],
      "name": "InvalidInitialization",
      "type": "error"
    },
    {
      "inputs": [],
      "name": "InvalidPhase",
      "type": "error"
    },
    {
      "inputs": [],
      "name": "NoFeesToWithdraw",
      "type": "error"
    },
    {
      "inputs": [],
      "name": "NotInitializing",
      "type": "error"
    },
    {
      "inputs": [
        {
          "internalType": "address",
          "name": "owner",
          "type": "address"
        }
      ],
      "name": "OwnableInvalidOwner",
      "type": "error"
    },
    {
      "inputs": [
        {
          "internalType": "address",
          "name": "account",
          "type": "address"
        }
      ],
      "name": "OwnableUnauthorizedAccount",
      "type": "error"
    },
    {
      "inputs": [],
      "name": "PreBondingTargetReached",
      "type": "error"
    },
    {
      "inputs": [],
      "name": "ReentrancyGuardReentrantCall",
      "type": "error"
    },
    {
      "inputs": [
        {
          "internalType": "address",
          "name": "token",
          "type": "address"
        }
      ],
      "name": "SafeERC20FailedOperation",
      "type": "error"
    },
    {
      "inputs": [],
      "name": "SlippageExceeded",
      "type": "error"
    },
    {
      "inputs": [],
      "name": "TokensLocked",
      "type": "error"
    },
    {
      "inputs": [],
      "name": "TokensNotLocked",
      "type": "error"
    },
    {
      "inputs": [],
      "name": "TransferFailed",
      "type": "error"
    },
    {
      "inputs": [],
      "name": "ZeroAddress",
      "type": "error"
    },
    {
      "anonymous": false,
      "inputs": [
        {
          "indexed": true,
          "internalType": "address",
          "name": "uniswapPool",
          "type": "address"
        },
        {
          "indexed": true,
          "internalType": "uint256",
          "name": "lpTokenId",
          "type": "uint256"
        }
      ],
      "name": "CurveFinalized",
      "type": "event"
    },
    {
      "anonymous": false,
      "inputs": [
        {
          "indexed": false,
          "internalType": "uint256",
          "name": "amount",
          "type": "uint256"
        }
      ],
      "name": "FeesWithdrawn",
      "type": "event"
    },
    {
      "anonymous": false,
      "inputs": [
        {
          "indexed": false,
          "internalType": "uint64",
          "name": "version",
          "type": "uint64"
        }
      ],
      "name": "Initialized",
      "type": "event"
    },
    {
      "anonymous": false,
      "inputs": [
        {
          "indexed": true,
          "internalType": "address",
          "name": "previousOwner",
          "type": "address"
        },
        {
          "indexed": true,
          "internalType": "address",
          "name": "newOwner",
          "type": "address"
        }
      ],
      "name": "OwnershipTransferStarted",
      "type": "event"
    },
    {
      "anonymous": false,
      "inputs": [
        {
          "indexed": true,
          "internalType": "address",
          "name": "previousOwner",
          "type": "address"
        },
        {
          "indexed": true,
          "internalType": "address",
          "name": "newOwner",
          "type": "address"
        }
      ],
      "name": "OwnershipTransferred",
      "type": "event"
    },
    {
      "anonymous": false,
      "inputs": [
        {
          "indexed": false,
          "internalType": "uint256",
          "name": "totalContributed",
          "type": "uint256"
        },
        {
          "indexed": false,
          "internalType": "uint256",
          "name": "totalTokens",
          "type": "uint256"
        }
      ],
      "name": "PreBondingCompleted",
      "type": "event"
    },
    {
      "anonymous": false,
      "inputs": [
        {
          "indexed": true,
          "internalType": "address",
          "name": "contributor",
          "type": "address"
        },
        {
          "indexed": false,
          "internalType": "uint256",
          "name": "amount",
          "type": "uint256"
        },
        {
          "indexed": false,
          "internalType": "uint256",
          "name": "tokenAmount",
          "type": "uint256"
        }
      ],
      "name": "PreBondingContribution",
      "type": "event"
    },
    {
      "anonymous": false,
      "inputs": [
        {
          "indexed": true,
          "internalType": "address",
          "name": "buyer",
          "type": "address"
        },
        {
          "indexed": false,
          "internalType": "uint256",
          "name": "ethAmount",
          "type": "uint256"
        },
        {
          "indexed": false,
          "internalType": "uint256",
          "name": "tokenAmount",
          "type": "uint256"
        }
      ],
      "name": "TokensPurchased",
      "type": "event"
    },
    {
      "anonymous": false,
      "inputs": [
        {
          "indexed": true,
          "internalType": "address",
          "name": "seller",
          "type": "address"
        },
        {
          "indexed": false,
          "internalType": "uint256",
          "name": "tokenAmount",
          "type": "uint256"
        },
        {
          "indexed": false,
          "internalType": "uint256",
          "name": "ethAmount",
          "type": "uint256"
        },
        {
          "indexed": false,
          "internalType": "uint256",
          "name": "fee",
          "type": "uint256"
        }
      ],
      "name": "TokensSold",
      "type": "event"
    },
    {
      "anonymous": false,
      "inputs": [
        {
          "indexed": true,
          "internalType": "address",
          "name": "account",
          "type": "address"
        }
      ],
      "name": "TokensUnlocked",
      "type": "event"
    },
    {
      "inputs": [],
      "name": "acceptOwnership",
      "outputs": [],
      "stateMutability": "nonpayable",
      "type": "function"
    },
    {
      "inputs": [],
      "name": "accumulatedFees",
      "outputs": [
        {
          "internalType": "uint256",
          "name": "",
          "type": "uint256"
        }
      ],
      "stateMutability": "view",
      "type": "function"
    },
    {
      "inputs": [
        {
          "internalType": "uint256",
          "name": "minTokens",
          "type": "uint256"
        }
      ],
      "name": "buyTokens",
      "outputs": [
        {
          "internalType": "uint256",
          "name": "tokensToReceive",
          "type": "uint256"
        }
      ],
      "stateMutability": "payable",
      "type": "function"
    },
    {
      "inputs": [],
      "name": "contributePreBonding",
      "outputs": [],
      "stateMutability": "payable",
      "type": "function"
    },
    {
      "inputs": [
        {
          "internalType": "address",
          "name": "",
          "type": "address"
        }
      ],
      "name": "contributions",
      "outputs": [
        {
          "internalType": "uint256",
          "name": "",
          "type": "uint256"
        }
      ],
      "stateMutability": "view",
      "type": "function"
    },
    {
      "inputs": [],
      "name": "currentPhase",
      "outputs": [
        {
          "internalType": "enum BondingCurve.Phase",
          "name": "",
          "type": "uint8"
        }
      ],
      "stateMutability": "view",
      "type": "function"
    },
    {
      "inputs": [],
      "name": "ethReserve",
      "outputs": [
        {
          "internalType": "uint256",
          "name": "",
          "type": "uint256"
        }
      ],
      "stateMutability": "view",
      "type": "function"
    },
    {
      "inputs": [],
      "name": "finalizeCurve",
      "outputs": [],
      "stateMutability": "nonpayable",
      "type": "function"
    },
    {
      "inputs": [],
      "name": "getBondingCurveSettings",
      "outputs": [
        {
          "components": [
            {
              "internalType": "uint256",
              "name": "virtualEth",
              "type": "uint256"
            },
            {
              "internalType": "uint256",
              "name": "preBondingTarget",
              "type": "uint256"
            },
            {
              "internalType": "uint256",
              "name": "bondingTarget",
              "type": "uint256"
            },
            {
              "internalType": "uint256",
              "name": "minContribution",
              "type": "uint256"
            },
            {
              "internalType": "uint24",
              "name": "poolFee",
              "type": "uint24"
            },
            {
              "internalType": "uint24",
              "name": "sellFee",
              "type": "uint24"
            },
            {
              "internalType": "address",
              "name": "uniswapV3Factory",
              "type": "address"
            },
            {
              "internalType": "address",
              "name": "positionManager",
              "type": "address"
            },
            {
              "internalType": "address",
              "name": "weth",
              "type": "address"
            },
            {
              "internalType": "address",
              "name": "feeTo",
              "type": "address"
            }
          ],
          "internalType": "struct IFactory.BondingCurveSettings",
          "name": "",
          "type": "tuple"
        }
      ],
      "stateMutability": "view",
      "type": "function"
    },
    {
      "inputs": [
        {
          "internalType": "address",
          "name": "token_",
          "type": "address"
        },
        {
          "internalType": "address",
          "name": "lock_",
          "type": "address"
        },
        {
          "internalType": "address",
          "name": "owner_",
          "type": "address"
        },
        {
          "components": [
            {
              "internalType": "uint256",
              "name": "virtualEth",
              "type": "uint256"
            },
            {
              "internalType": "uint256",
              "name": "preBondingTarget",
              "type": "uint256"
            },
            {
              "internalType": "uint256",
              "name": "bondingTarget",
              "type": "uint256"
            },
            {
              "internalType": "uint256",
              "name": "minContribution",
              "type": "uint256"
            },
            {
              "internalType": "uint24",
              "name": "poolFee",
              "type": "uint24"
            },
            {
              "internalType": "uint24",
              "name": "sellFee",
              "type": "uint24"
            },
            {
              "internalType": "address",
              "name": "uniswapV3Factory",
              "type": "address"
            },
            {
              "internalType": "address",
              "name": "positionManager",
              "type": "address"
            },
            {
              "internalType": "address",
              "name": "weth",
              "type": "address"
            },
            {
              "internalType": "address",
              "name": "feeTo",
              "type": "address"
            }
          ],
          "internalType": "struct IFactory.BondingCurveSettings",
          "name": "settings_",
          "type": "tuple"
        }
      ],
      "name": "initialize",
      "outputs": [],
      "stateMutability": "nonpayable",
      "type": "function"
    },
    {
      "inputs": [],
      "name": "isFinalized",
      "outputs": [
        {
          "internalType": "bool",
          "name": "",
          "type": "bool"
        }
      ],
      "stateMutability": "view",
      "type": "function"
    },
    {
      "inputs": [],
      "name": "lockContract",
      "outputs": [
        {
          "internalType": "address",
          "name": "",
          "type": "address"
        }
      ],
      "stateMutability": "view",
      "type": "function"
    },
    {
      "inputs": [],
      "name": "lpTokenId",
      "outputs": [
        {
          "internalType": "uint256",
          "name": "",
          "type": "uint256"
        }
      ],
      "stateMutability": "view",
      "type": "function"
    },
    {
      "inputs": [
        {
          "internalType": "address",
          "name": "",
          "type": "address"
        },
        {
          "internalType": "address",
          "name": "",
          "type": "address"
        },
        {
          "internalType": "uint256",
          "name": "",
          "type": "uint256"
        },
        {
          "internalType": "bytes",
          "name": "",
          "type": "bytes"
        }
      ],
      "name": "onERC721Received",
      "outputs": [
        {
          "internalType": "bytes4",
          "name": "",
          "type": "bytes4"
        }
      ],
      "stateMutability": "pure",
      "type": "function"
    },
    {
      "inputs": [],
      "name": "owner",
      "outputs": [
        {
          "internalType": "address",
          "name": "",
          "type": "address"
        }
      ],
      "stateMutability": "view",
      "type": "function"
    },
    {
      "inputs": [],
      "name": "pendingOwner",
      "outputs": [
        {
          "internalType": "address",
          "name": "",
          "type": "address"
        }
      ],
      "stateMutability": "view",
      "type": "function"
    },
    {
      "inputs": [],
      "name": "preBondingTokens",
      "outputs": [
        {
          "internalType": "uint256",
          "name": "",
          "type": "uint256"
        }
      ],
      "stateMutability": "view",
      "type": "function"
    },
    {
      "inputs": [],
      "name": "renounceOwnership",
      "outputs": [],
      "stateMutability": "nonpayable",
      "type": "function"
    },
    {
      "inputs": [
        {
          "internalType": "uint256",
          "name": "tokenAmount",
          "type": "uint256"
        },
        {
          "internalType": "uint256",
          "name": "minETH",
          "type": "uint256"
        }
      ],
      "name": "sellTokens",
      "outputs": [
        {
          "internalType": "uint256",
          "name": "ethToReceive",
          "type": "uint256"
        },
        {
          "internalType": "uint256",
          "name": "fee",
          "type": "uint256"
        }
      ],
      "stateMutability": "nonpayable",
      "type": "function"
    },
    {
      "inputs": [],
      "name": "token",
      "outputs": [
        {
          "internalType": "contract IToken",
          "name": "",
          "type": "address"
        }
      ],
      "stateMutability": "view",
      "type": "function"
    },
    {
      "inputs": [
        {
          "internalType": "address",
          "name": "",
          "type": "address"
        }
      ],
      "name": "tokenAllocations",
      "outputs": [
        {
          "internalType": "uint256",
          "name": "",
          "type": "uint256"
        }
      ],
      "stateMutability": "view",
      "type": "function"
    },
    {
      "inputs": [
        {
          "internalType": "address",
          "name": "",
          "type": "address"
        }
      ],
      "name": "tokenLocks",
      "outputs": [
        {
          "internalType": "bool",
          "name": "",
          "type": "bool"
        }
      ],
      "stateMutability": "view",
      "type": "function"
    },
    {
      "inputs": [],
      "name": "tokenReserve",
      "outputs": [
        {
          "internalType": "uint256",
          "name": "",
          "type": "uint256"
        }
      ],
      "stateMutability": "view",
      "type": "function"
    },
    {
      "inputs": [],
      "name": "totalETHCollected",
      "outputs": [
        {
          "internalType": "uint256",
          "name": "",
          "type": "uint256"
        }
      ],
      "stateMutability": "view",
      "type": "function"
    },
    {
      "inputs": [],
      "name": "totalPreBondingContributions",
      "outputs": [
        {
          "internalType": "uint256",
          "name": "",
          "type": "uint256"
        }
      ],
      "stateMutability": "view",
      "type": "function"
    },
    {
      "inputs": [
        {
          "internalType": "address",
          "name": "newOwner",
          "type": "address"
        }
      ],
      "name": "transferOwnership",
      "outputs": [],
      "stateMutability": "nonpayable",
      "type": "function"
    },
    {
      "inputs": [],
      "name": "uniswapPool",
      "outputs": [
        {
          "internalType": "address",
          "name": "",
          "type": "address"
        }
      ],
      "stateMutability": "view",
      "type": "function"
    },
    {
      "inputs": [
        {
          "internalType": "address",
          "name": "recipient",
          "type": "address"
        }
      ],
      "name": "withdrawTokenAllocation",
      "outputs": [],
      "stateMutability": "nonpayable",
      "type": "function"
    },
    {
      "stateMutability": "payable",
      "type": "receive"
    }
  ],
  "transactionHash": "0x264014fecdbc204791c0ed4adef2fe3a716ba20588073aafa7ff137ad626174d",
  "args": [],
  "numDeployments": 1,
  "solcInputHash": "755db2098558d55cecbeb68d819ee939",
  "bytecode": "0x608060405234801561001057600080fd5b50612374806100206000396000f3fe6080604052600436106101bb5760003560e01c8063715018a6116100ec578063cbcb31711161008a578063ed9772b611610064578063ed9772b6146105a0578063f2fde38b146105d5578063f4a49936146105f5578063fc0c546a146105fd57600080fd5b8063cbcb31711461055f578063d62ccb3f14610575578063e30c39781461058b57600080fd5b80638d4e4083116100c65780638d4e40831461041f5780638da5cb5b14610439578063a29056681461044e578063bdd3d8251461053f57600080fd5b8063715018a6146103bd578063753868e3146103d257806379ba50971461040a57600080fd5b80632cd67215116101595780634efef770116101335780634efef7701461033257806356b63df714610352578063587f5ed7146103925780636af55124146103a857600080fd5b80632cd67215146102dc5780633610724e146102f257806342e94c901461030557600080fd5b80630b6d621c116101955780630b6d621c1461023e5780630f58fd0f1461026b578063150b7a021461028157806328339479146102c657600080fd5b80630242d712146101c7578063050d388c146101f0578063055ad42e1461021257600080fd5b366101c257005b600080fd5b3480156101d357600080fd5b506101dd600b5481565b6040519081526020015b60405180910390f35b3480156101fc57600080fd5b5061021061020b366004611d53565b61061d565b005b34801561021e57600080fd5b50600c5461023190610100900460ff1681565b6040516101e79190611dcf565b34801561024a57600080fd5b506101dd610259366004611df7565b60156020526000908152604090205481565b34801561027757600080fd5b506101dd60115481565b34801561028d57600080fd5b506102ad61029c366004611e1b565b630a85bd0160e11b95945050505050565b6040516001600160e01b031990911681526020016101e7565b3480156102d257600080fd5b506101dd60105481565b3480156102e857600080fd5b506101dd600d5481565b6101dd610300366004611eba565b6107cf565b34801561031157600080fd5b506101dd610320366004611df7565b60136020526000908152604090205481565b34801561033e57600080fd5b5061021061034d366004611df7565b610986565b34801561035e57600080fd5b5061038261036d366004611df7565b60146020526000908152604090205460ff1681565b60405190151581526020016101e7565b34801561039e57600080fd5b506101dd60125481565b3480156103b457600080fd5b50610210610ac3565b3480156103c957600080fd5b50610210610d6f565b3480156103de57600080fd5b506009546103f2906001600160a01b031681565b6040516001600160a01b0390911681526020016101e7565b34801561041657600080fd5b50610210610d81565b34801561042b57600080fd5b50600c546103829060ff1681565b34801561044557600080fd5b506103f2610dcb565b34801561045a57600080fd5b506105326040805161014081018252600080825260208201819052918101829052606081018290526080810182905260a0810182905260c0810182905260e0810182905261010081018290526101208101919091525060408051610140810182526000548152600154602082015260025491810191909152600354606082015260045462ffffff8082166080840152630100000082041660a08301526001600160a01b036601000000000000909104811660c0830152600554811660e083015260065481166101008301526007541661012082015290565b6040516101e79190611ed3565b34801561054b57600080fd5b50600a546103f2906001600160a01b031681565b34801561056b57600080fd5b506101dd600f5481565b34801561058157600080fd5b506101dd600e5481565b34801561059757600080fd5b506103f2610e00565b3480156105ac57600080fd5b506105c06105bb366004611f8e565b610e29565b604080519283526020830191909152016101e7565b3480156105e157600080fd5b506102106105f0366004611df7565b610feb565b610210611070565b34801561060957600080fd5b506008546103f2906001600160a01b031681565b7ff0c57e16840df040f15088dc2f81fe391c3923bec73e23a9662efc9c229c6a008054600160401b810460ff16159067ffffffffffffffff166000811580156106635750825b905060008267ffffffffffffffff1660011480156106805750303b155b90508115801561068e575080155b156106ac5760405163f92ee8a960e01b815260040160405180910390fd5b845467ffffffffffffffff1916600117855583156106d657845460ff60401b1916600160401b1785555b6001600160a01b03891615806106f357506001600160a01b038816155b8061070557506001600160a01b038716155b156107235760405163d92e233d60e01b815260040160405180910390fd5b61072c8761132d565b61073461133e565b600880546001600160a01b03808c166001600160a01b03199283161790925560098054928b16929091169190911790558560006107718282611ff2565b5050600c805461ff001916905583156107c457845460ff60401b19168555604051600181527fc7f505b2f371ae2175ee4913f4499e1f2633a7b5936321eed1cdaeb6115181d29060200160405180910390a15b505050505050505050565b60006107d961134e565b600180600c54610100900460ff1660028111156107f8576107f8611db9565b146108165760405163268dbf6760e21b815260040160405180910390fd5b60035434101561083957604051636c7591b560e11b815260040160405180910390fd5b600254601154111561085e5760405163031d383360e11b815260040160405180910390fd5b61086d600e54600f5434611386565b91508282101561089057604051638199f5f360e01b815260040160405180910390fd5b81600f5410156108b3576040516378dbf0af60e11b815260040160405180910390fd5b34600e60008282546108c59190612109565b9250508190555081600f60008282546108de919061211c565b9250508190555034601160008282546108f79190612109565b9091555050600854610913906001600160a01b031633846113b7565b604080513481526020810184905233917f8fafebcaf9d154343dad25669bfa277f4fbacd7ac6b0c4fed522580e040a0f33910160405180910390a26002546011541061096957600c805461ff0019166102001790555b50610981600160008051602061231f83398151915255565b919050565b61098e61134e565b600c5460ff166109b15760405163ddf14e6b60e01b815260040160405180910390fd5b6001600160a01b0381166109d85760405163d92e233d60e01b815260040160405180910390fd5b3360009081526014602052604090205460ff16610a08576040516314b28e4760e21b815260040160405180910390fd5b3360009081526015602052604081205490819003610a39576040516378dbf0af60e11b815260040160405180910390fd5b33600090815260156020908152604080832083905560149091529020805460ff19169055600854610a74906001600160a01b031683836113b7565b6040516001600160a01b038316907fcf96a7404357442bbc147c389fc2942cb6eedcaf1aad90bb8eb4b67ce43d4fb290600090a250610ac0600160008051602061231f83398151915255565b50565b610acb61134e565b6002546011541015610af05760405163ddf14e6b60e01b815260040160405180910390fd5b600c5460ff1615610b145760405163475a253560e01b815260040160405180910390fd5b6040805160c0810182526004546001600160a01b03660100000000000082048116835260085481166020840152600654169282019290925262ffffff9091166060820152600e546080820152600f5460a08201526000610b738261142f565b905060004790506000600e54600f5483610b8d919061212f565b610b97919061215c565b600554600854919250610bb7916001600160a01b03908116911683611570565b6040805160c0810182526005546001600160a01b03908116825260085481166020830152600654169181019190915260045462ffffff1660608201526080810183905260a081018290526000610c0c82611600565b60055460095460405163095ea7b360e01b81526001600160a01b03918216600482015260248101849052929350169063095ea7b390604401600060405180830381600087803b158015610c5e57600080fd5b505af1158015610c72573d6000803e3d6000fd5b50506009546001600160a01b03169150638a26f447905082610c92610dcb565b6040516001600160e01b031960e085901b16815260048101929092526001600160a01b03166024820152604401600060405180830381600087803b158015610cd957600080fd5b505af1158015610ced573d6000803e3d6000fd5b5050600a80546001600160a01b0319166001600160a01b038916908117909155600b849055600c805461ffff19166102011790556040518493509091507f1e75a30ff2c00ce5b7284539725ed60843e751d9d76c3334813a971e24955ebe90600090a3505050505050610d6d600160008051602061231f83398151915255565b565b610d776117fe565b610d6d6000611830565b3380610d8b610e00565b6001600160a01b031614610dc25760405163118cdaa760e01b81526001600160a01b03821660048201526024015b60405180910390fd5b610ac081611830565b6000807f9016d09d72d40fdae2fd8ceac6b6234c7706214fd39c1cd1e609a0528c1993005b546001600160a01b031692915050565b6000807f237e158222e3e6968b72b9db0d8043aacf074ad9f650f0d1606b4d82ee432c00610df0565b600080610e3461134e565b600180600c54610100900460ff166002811115610e5357610e53611db9565b14610e715760405163268dbf6760e21b815260040160405180910390fd5b84600003610e92576040516378dbf0af60e11b815260040160405180910390fd5b600e54600f54600454610eb492919088906301000000900462ffffff1661186c565b909350915083831015610eda57604051638199f5f360e01b815260040160405180910390fd5b60008054600e54610eeb919061211c565b9050610ef78385612109565b811015610f1757604051631a84bc4160e21b815260040160405180910390fd5b610f218385612109565b600e6000828254610f32919061211c565b9250508190555085600f6000828254610f4b9190612109565b9091555050600854610f68906001600160a01b03163330896118cd565b610f723385611906565b600754610f88906001600160a01b031684611906565b604080518781526020810186905290810184905233907f6db63bebf1e6540277744df32846ebdb98385b1a73f2d5de49b28348add63f509060600160405180910390a25050610fe4600160008051602061231f83398151915255565b9250929050565b610ff36117fe565b7f237e158222e3e6968b72b9db0d8043aacf074ad9f650f0d1606b4d82ee432c0080546001600160a01b0319166001600160a01b0383169081178255611037610dcb565b6001600160a01b03167f38d16b8cac22d99fc7c124b9cd0de2d3fa1faef420bfe791d8c362d765e2270060405160405180910390a35050565b61107861134e565b600080600c54610100900460ff16600281111561109757611097611db9565b146110b55760405163268dbf6760e21b815260040160405180910390fd5b6003543410156110d857604051636c7591b560e11b815260040160405180910390fd5b600034600d546110e89190612109565b60015490915081111561110e5760405163e044426960e01b815260040160405180910390fd5b600080546008546040516370a0823160e01b815230600482015261118792916001600160a01b0316906370a0823190602401602060405180830381865afa15801561115d573d6000803e3d6000fd5b505050506040513d601f19601f820116820180604052508101906111819190612170565b34611386565b336000908152601360205260408120805492935034929091906111ab908490612109565b909155505033600090815260156020526040812080548392906111cf908490612109565b9250508190555034600d60008282546111e89190612109565b9250508190555080601060008282546112019190612109565b90915550503360008181526014602052604090819020805460ff19166001179055517fb2cba05ebc70927fff6cd92123d8daf9059d1de235ec0da7243bebca1270185c9061125b9034908590918252602082015260400190565b60405180910390a2600154600d541061131357600c805461ff001916610100179055600d5460005461128d9190612109565b600e55600d546011556010546008546040516370a0823160e01b81523060048201526001600160a01b03909116906370a0823190602401602060405180830381865afa1580156112e1573d6000803e3d6000fd5b505050506040513d601f19601f820116820180604052508101906113059190612170565b61130f919061211c565b600f555b505050610d6d600160008051602061231f83398151915255565b6113356119a4565b610ac0816119ed565b6113466119a4565b610d6d611a1f565b60008051602061231f83398151915280546001190161138057604051633ee5aeb560e01b815260040160405180910390fd5b60029055565b600080611393848461212f565b905060006113a18487612109565b90506113ad818361215c565b9695505050505050565b6040516001600160a01b0383811660248301526044820183905261141691859182169063a9059cbb906064015b604051602081830303815290604052915060e01b6020820180516001600160e01b038381831617835250505050611a27565b505050565b600160008051602061231f83398151915255565b805160208201516040808401516060850151915163a167129560e01b81526001600160a01b039384166004820152908316602482015262ffffff90911660448201526000929182169063a1671295906064016020604051808303816000875af11580156114a0573d6000803e3d6000fd5b505050506040513d601f19601f820116820180604052508101906114c49190612189565b915060006114d5600160601b611a98565b6115008560a00151600160601b87608001516114f1919061212f565b6114fb919061215c565b611a98565b61150a919061212f565b60405163f637731d60e01b81526001600160a01b0380831660048301529192509084169063f637731d90602401600060405180830381600087803b15801561155157600080fd5b505af1158015611565573d6000803e3d6000fd5b505050505050919050565b604051636eb1769f60e11b81523060048201526001600160a01b0383811660248301526000919085169063dd62ed3e90604401602060405180830381865afa1580156115c0573d6000803e3d6000fd5b505050506040513d601f19601f820116820180604052508101906115e49190612170565b90506115fa84846115f58585612109565b611bec565b50505050565b600080603c61161381620d89e7196121a6565b61161d91906121e0565b90506000603c61163081620d89e86121a6565b61163a91906121e0565b9050600060648560a00151605a611651919061212f565b61165b919061215c565b9050600060648660800151605a611672919061212f565b61167c919061215c565b9050600086604001516001600160a01b031687602001516001600160a01b03161090506000604051806101600160405280836116bc5789604001516116c2565b89602001515b6001600160a01b03168152602001836116df5789602001516116e5565b89604001515b6001600160a01b03168152602001896060015162ffffff1681526020018760020b81526020018660020b815260200183611723578960800151611729565b8960a001515b81526020018361173d578960a00151611743565b89608001515b8152602001836117535784611755565b855b8152602001836117655785611767565b845b815230602082015242604091820152895160808b01519151634418b22b60e11b81529293506001600160a01b031691638831645691906117ab908590600401612207565b60806040518083038185885af11580156117c9573d6000803e3d6000fd5b50505050506040513d601f19601f820116820180604052508101906117ee91906122cb565b50919a9950505050505050505050565b33611807610dcb565b6001600160a01b031614610d6d5760405163118cdaa760e01b8152336004820152602401610db9565b7f237e158222e3e6968b72b9db0d8043aacf074ad9f650f0d1606b4d82ee432c0080546001600160a01b031916815561186882611c7c565b5050565b6000808061187a878661212f565b905060006118888688612109565b9050611894818361215c565b935084156118c2576127106118a9868661212f565b6118b3919061215c565b92506118bf838561211c565b93505b505094509492505050565b6040516001600160a01b0384811660248301528381166044830152606482018390526115fa9186918216906323b872dd906084016113e4565b804710156119305760405163cf47918160e01b815247600482015260248101829052604401610db9565b6000826001600160a01b03168260405160006040518083038185875af1925050503d806000811461197d576040519150601f19603f3d011682016040523d82523d6000602084013e611982565b606091505b50509050806114165760405163d6bda27560e01b815260040160405180910390fd5b7ff0c57e16840df040f15088dc2f81fe391c3923bec73e23a9662efc9c229c6a0054600160401b900460ff16610d6d57604051631afcd79f60e31b815260040160405180910390fd5b6119f56119a4565b6001600160a01b038116610dc257604051631e4fbdf760e01b815260006004820152602401610db9565b61141b6119a4565b600080602060008451602086016000885af180611a4a576040513d6000823e3d81fd5b50506000513d91508115611a62578060011415611a6f565b6001600160a01b0384163b155b156115fa57604051635274afe760e01b81526001600160a01b0385166004820152602401610db9565b600060018211611aa6575090565b816001600160801b8210611abf5760809190911c9060401b5b600160401b8210611ad55760409190911c9060201b5b6401000000008210611aec5760209190911c9060101b5b620100008210611b015760109190911c9060081b5b6101008210611b155760089190911c9060041b5b60108210611b285760049190911c9060021b5b60048210611b345760011b5b600302600190811c90818581611b4c57611b4c612146565b048201901c90506001818581611b6457611b64612146565b048201901c90506001818581611b7c57611b7c612146565b048201901c90506001818581611b9457611b94612146565b048201901c90506001818581611bac57611bac612146565b048201901c90506001818581611bc457611bc4612146565b048201901c9050611be3818581611bdd57611bdd612146565b04821190565b90039392505050565b604080516001600160a01b038416602482015260448082018490528251808303909101815260649091019091526020810180516001600160e01b031663095ea7b360e01b179052611c3d8482611ced565b6115fa576040516001600160a01b03848116602483015260006044830152611c7291869182169063095ea7b3906064016113e4565b6115fa8482611a27565b7f9016d09d72d40fdae2fd8ceac6b6234c7706214fd39c1cd1e609a0528c19930080546001600160a01b031981166001600160a01b03848116918217845560405192169182907f8be0079c531659141344cd1fd0a4f28419497f9722a3daafe3b4186f6b6457e090600090a3505050565b6000806000806020600086516020880160008a5af192503d91506000519050828015611d3257508115611d235780600114611d32565b6000866001600160a01b03163b115b93505050505b92915050565b6001600160a01b0381168114610ac057600080fd5b6000806000808486036101a0811215611d6b57600080fd5b8535611d7681611d3e565b94506020860135611d8681611d3e565b93506040860135611d9681611d3e565b9250610140605f1982011215611dab57600080fd5b509295919450926060019150565b634e487b7160e01b600052602160045260246000fd5b6020810160038310611df157634e487b7160e01b600052602160045260246000fd5b91905290565b600060208284031215611e0957600080fd5b8135611e1481611d3e565b9392505050565b600080600080600060808688031215611e3357600080fd5b8535611e3e81611d3e565b94506020860135611e4e81611d3e565b935060408601359250606086013567ffffffffffffffff80821115611e7257600080fd5b818801915088601f830112611e8657600080fd5b813581811115611e9557600080fd5b896020828501011115611ea757600080fd5b9699959850939650602001949392505050565b600060208284031215611ecc57600080fd5b5035919050565b600061014082019050825182526020830151602083015260408301516040830152606083015160608301526080830151611f14608084018262ffffff169052565b5060a0830151611f2b60a084018262ffffff169052565b5060c0830151611f4660c08401826001600160a01b03169052565b5060e0830151611f6160e08401826001600160a01b03169052565b50610100838101516001600160a01b03908116918401919091526101209384015116929091019190915290565b60008060408385031215611fa157600080fd5b50508035926020909101359150565b6000813562ffffff81168114611d3857600080fd5b60008135611d3881611d3e565b80546001600160a01b0319166001600160a01b0392909216919091179055565b813581556020820135600182015560408201356002820155606082013560038201556004810161203c61202760808501611fb0565b825462ffffff191662ffffff91909116178255565b61206961204b60a08501611fb0565b825465ffffff000000191660189190911b65ffffff00000016178255565b6120a861207860c08501611fc5565b8280546601000000000000600160d01b03191660309290921b6601000000000000600160d01b0316919091179055565b506120c16120b860e08401611fc5565b60058301611fd2565b6120da6120d16101008401611fc5565b60068301611fd2565b6118686120ea6101208401611fc5565b60078301611fd2565b634e487b7160e01b600052601160045260246000fd5b80820180821115611d3857611d386120f3565b81810381811115611d3857611d386120f3565b8082028115828204841417611d3857611d386120f3565b634e487b7160e01b600052601260045260246000fd5b60008261216b5761216b612146565b500490565b60006020828403121561218257600080fd5b5051919050565b60006020828403121561219b57600080fd5b8151611e1481611d3e565b60008160020b8360020b806121bd576121bd612146565b627fffff198214600019821416156121d7576121d76120f3565b90059392505050565b60008260020b8260020b028060020b9150808214612200576122006120f3565b5092915050565b81516001600160a01b031681526101608101602083015161223360208401826001600160a01b03169052565b50604083015161224a604084018262ffffff169052565b50606083015161225f606084018260020b9052565b506080830151612274608084018260020b9052565b5060a083015160a083015260c083015160c083015260e083015160e0830152610100808401518184015250610120808401516122ba828501826001600160a01b03169052565b505061014092830151919092015290565b600080600080608085870312156122e157600080fd5b8451935060208501516fffffffffffffffffffffffffffffffff8116811461230857600080fd5b604086015160609096015194979096509250505056fe9b779b17422d0df92223018b32b4d1fa46e071723d6817e2486d003becc55f00a26469706673582212203f9990a8b50a2d9e2dcbc8f100e89a896a314d92ef36b0b57cea1c64f81e8afa64736f6c63430008140033",
  "devdoc": {
    "errors": {
      "FailedCall()": [
        {
          "details": "A call to an address target failed. The target may have reverted."
        }
      ],
      "InsufficientBalance(uint256,uint256)": [
        {
          "details": "The ETH balance of the account is not enough to perform the operation."
        }
      ],
      "InvalidInitialization()": [
        {
          "details": "The contract is already initialized."
        }
      ],
      "NotInitializing()": [
        {
          "details": "The contract is not initializing."
        }
      ],
      "OwnableInvalidOwner(address)": [
        {
          "details": "The owner is not a valid owner account. (eg. `address(0)`)"
        }
      ],
      "OwnableUnauthorizedAccount(address)": [
        {
          "details": "The caller account is not authorized to perform an operation."
        }
      ],
      "ReentrancyGuardReentrantCall()": [
        {
          "details": "Unauthorized reentrant call."
        }
      ],
      "SafeERC20FailedOperation(address)": [
        {
          "details": "An operation with an ERC-20 token failed."
        }
      ]
    },
    "events": {
      "Initialized(uint64)": {
        "details": "Triggered when the contract has been initialized or reinitialized."
      }
    },
    "kind": "dev",
    "methods": {
      "acceptOwnership()": {
        "details": "The new owner accepts the ownership transfer."
      },
      "buyTokens(uint256)": {
        "params": {
          "minTokens": "Minimum tokens to receive (slippage protection)"
        }
      },
      "finalizeCurve()": {
        "details": "Only callable when bonding target is reached"
      },
      "initialize(address,address,address,(uint256,uint256,uint256,uint256,uint24,uint24,address,address,address,address))": {
        "params": {
          "lock_": "Address of the LP NFT lock contract",
          "owner_": "Address that will own the contract",
          "token_": "Address of the ERC20 token"
        }
      },
      "owner()": {
        "details": "Returns the address of the current owner."
      },
      "pendingOwner()": {
        "details": "Returns the address of the pending owner."
      },
      "renounceOwnership()": {
        "details": "Leaves the contract without owner. It will not be possible to call `onlyOwner` functions. Can only be called by the current owner. NOTE: Renouncing ownership will leave the contract without an owner, thereby disabling any functionality that is only available to the owner."
      },
      "sellTokens(uint256,uint256)": {
        "params": {
          "minETH": "Minimum ETH to receive (slippage protection)",
          "tokenAmount": "Amount of tokens to sell"
        }
      },
      "transferOwnership(address)": {
        "details": "Starts the ownership transfer of the contract to a new account. Replaces the pending transfer if there is one. Can only be called by the current owner. Setting `newOwner` to the zero address is allowed; this can be used to cancel an initiated ownership transfer."
      },
      "withdrawTokenAllocation(address)": {
        "details": "Can only be called after curve is finalized and only by addresses with allocations",
        "params": {
          "recipient": "Address to receive the tokens"
        }
      }
    },
    "version": 1
  },
  "userdoc": {
    "kind": "user",
    "methods": {
      "buyTokens(uint256)": {
        "notice": "Buy tokens during bonding phase"
      },
      "contributePreBonding()": {
        "notice": "Contribute ETH during pre-bonding phase"
      },
      "finalizeCurve()": {
        "notice": "Finalize the curve and create Uniswap pool"
      },
      "initialize(address,address,address,(uint256,uint256,uint256,uint256,uint24,uint24,address,address,address,address))": {
        "notice": "Initialize the bonding curve contract"
      },
      "onERC721Received(address,address,uint256,bytes)": {
        "notice": "Implements IERC721Receiver"
      },
      "sellTokens(uint256,uint256)": {
        "notice": "Sell tokens during bonding phase"
      },
      "withdrawTokenAllocation(address)": {
        "notice": "Withdraw allocated tokens after curve finalization"
      }
    },
    "version": 1
  },
  "storageLayout": {
    "storage": [
      {
        "astId": 8618,
        "contract": "contracts/BondingCurve.sol:BondingCurve",
        "label": "settings",
        "offset": 0,
        "slot": "0",
        "type": "t_struct(BondingCurveSettings)11201_storage"
      },
      {
        "astId": 8621,
        "contract": "contracts/BondingCurve.sol:BondingCurve",
        "label": "token",
        "offset": 0,
        "slot": "8",
        "type": "t_contract(IToken)8589"
      },
      {
        "astId": 8623,
        "contract": "contracts/BondingCurve.sol:BondingCurve",
        "label": "lockContract",
        "offset": 0,
        "slot": "9",
        "type": "t_address"
      },
      {
        "astId": 8625,
        "contract": "contracts/BondingCurve.sol:BondingCurve",
        "label": "uniswapPool",
        "offset": 0,
        "slot": "10",
        "type": "t_address"
      },
      {
        "astId": 8627,
        "contract": "contracts/BondingCurve.sol:BondingCurve",
        "label": "lpTokenId",
        "offset": 0,
        "slot": "11",
        "type": "t_uint256"
      },
      {
        "astId": 8629,
        "contract": "contracts/BondingCurve.sol:BondingCurve",
        "label": "isFinalized",
        "offset": 0,
        "slot": "12",
        "type": "t_bool"
      },
      {
        "astId": 8636,
        "contract": "contracts/BondingCurve.sol:BondingCurve",
        "label": "currentPhase",
        "offset": 1,
        "slot": "12",
        "type": "t_enum(Phase)8633"
      },
      {
        "astId": 8638,
        "contract": "contracts/BondingCurve.sol:BondingCurve",
        "label": "totalPreBondingContributions",
        "offset": 0,
        "slot": "13",
        "type": "t_uint256"
      },
      {
        "astId": 8640,
        "contract": "contracts/BondingCurve.sol:BondingCurve",
        "label": "ethReserve",
        "offset": 0,
        "slot": "14",
        "type": "t_uint256"
      },
      {
        "astId": 8642,
        "contract": "contracts/BondingCurve.sol:BondingCurve",
        "label": "tokenReserve",
        "offset": 0,
        "slot": "15",
        "type": "t_uint256"
      },
      {
        "astId": 8644,
        "contract": "contracts/BondingCurve.sol:BondingCurve",
        "label": "preBondingTokens",
        "offset": 0,
        "slot": "16",
        "type": "t_uint256"
      },
      {
        "astId": 8646,
        "contract": "contracts/BondingCurve.sol:BondingCurve",
        "label": "totalETHCollected",
        "offset": 0,
        "slot": "17",
        "type": "t_uint256"
      },
      {
        "astId": 8648,
        "contract": "contracts/BondingCurve.sol:BondingCurve",
        "label": "accumulatedFees",
        "offset": 0,
        "slot": "18",
        "type": "t_uint256"
      },
      {
        "astId": 8652,
        "contract": "contracts/BondingCurve.sol:BondingCurve",
        "label": "contributions",
        "offset": 0,
        "slot": "19",
        "type": "t_mapping(t_address,t_uint256)"
      },
      {
        "astId": 8656,
        "contract": "contracts/BondingCurve.sol:BondingCurve",
        "label": "tokenLocks",
        "offset": 0,
        "slot": "20",
        "type": "t_mapping(t_address,t_bool)"
      },
      {
        "astId": 8660,
        "contract": "contracts/BondingCurve.sol:BondingCurve",
        "label": "tokenAllocations",
        "offset": 0,
        "slot": "21",
        "type": "t_mapping(t_address,t_uint256)"
      }
    ],
    "types": {
      "t_address": {
        "encoding": "inplace",
        "label": "address",
        "numberOfBytes": "20"
      },
      "t_bool": {
        "encoding": "inplace",
        "label": "bool",
        "numberOfBytes": "1"
      },
      "t_contract(IToken)8589": {
        "encoding": "inplace",
        "label": "contract IToken",
        "numberOfBytes": "20"
      },
      "t_enum(Phase)8633": {
        "encoding": "inplace",
        "label": "enum BondingCurve.Phase",
        "numberOfBytes": "1"
      },
      "t_mapping(t_address,t_bool)": {
        "encoding": "mapping",
        "key": "t_address",
        "label": "mapping(address => bool)",
        "numberOfBytes": "32",
        "value": "t_bool"
      },
      "t_mapping(t_address,t_uint256)": {
        "encoding": "mapping",
        "key": "t_address",
        "label": "mapping(address => uint256)",
        "numberOfBytes": "32",
        "value": "t_uint256"
      },
      "t_struct(BondingCurveSettings)11201_storage": {
        "encoding": "inplace",
        "label": "struct IFactory.BondingCurveSettings",
        "members": [
          {
            "astId": 11182,
            "contract": "contracts/BondingCurve.sol:BondingCurve",
            "label": "virtualEth",
            "offset": 0,
            "slot": "0",
            "type": "t_uint256"
          },
          {
            "astId": 11184,
            "contract": "contracts/BondingCurve.sol:BondingCurve",
            "label": "preBondingTarget",
            "offset": 0,
            "slot": "1",
            "type": "t_uint256"
          },
          {
            "astId": 11186,
            "contract": "contracts/BondingCurve.sol:BondingCurve",
            "label": "bondingTarget",
            "offset": 0,
            "slot": "2",
            "type": "t_uint256"
          },
          {
            "astId": 11188,
            "contract": "contracts/BondingCurve.sol:BondingCurve",
            "label": "minContribution",
            "offset": 0,
            "slot": "3",
            "type": "t_uint256"
          },
          {
            "astId": 11190,
            "contract": "contracts/BondingCurve.sol:BondingCurve",
            "label": "poolFee",
            "offset": 0,
            "slot": "4",
            "type": "t_uint24"
          },
          {
            "astId": 11192,
            "contract": "contracts/BondingCurve.sol:BondingCurve",
            "label": "sellFee",
            "offset": 3,
            "slot": "4",
            "type": "t_uint24"
          },
          {
            "astId": 11194,
            "contract": "contracts/BondingCurve.sol:BondingCurve",
            "label": "uniswapV3Factory",
            "offset": 6,
            "slot": "4",
            "type": "t_address"
          },
          {
            "astId": 11196,
            "contract": "contracts/BondingCurve.sol:BondingCurve",
            "label": "positionManager",
            "offset": 0,
            "slot": "5",
            "type": "t_address"
          },
          {
            "astId": 11198,
            "contract": "contracts/BondingCurve.sol:BondingCurve",
            "label": "weth",
            "offset": 0,
            "slot": "6",
            "type": "t_address"
          },
          {
            "astId": 11200,
            "contract": "contracts/BondingCurve.sol:BondingCurve",
            "label": "feeTo",
            "offset": 0,
            "slot": "7",
            "type": "t_address"
          }
        ],
        "numberOfBytes": "256"
      },
      "t_uint24": {
        "encoding": "inplace",
        "label": "uint24",
        "numberOfBytes": "3"
      },
      "t_uint256": {
        "encoding": "inplace",
        "label": "uint256",
        "numberOfBytes": "32"
      }
    }
  }
}