{
  "address": "0x26a851091164ea17e4caa891d16953be485484e0",
  "abi": [
    {
      "inputs": [],
      "stateMutability": "nonpayable",
      "type": "constructor"
    },
    {
      "inputs": [],
      "name": "AlreadyMinted",
      "type": "error"
    },
    {
      "inputs": [
        {
          "internalType": "address",
          "name": "spender",
          "type": "address"
        },
        {
          "internalType": "uint256",
          "name": "allowance",
          "type": "uint256"
        },
        {
          "internalType": "uint256",
          "name": "needed",
          "type": "uint256"
        }
      ],
      "name": "ERC20InsufficientAllowance",
      "type": "error"
    },
    {
      "inputs": [
        {
          "internalType": "address",
          "name": "sender",
          "type": "address"
        },
        {
          "internalType": "uint256",
          "name": "balance",
          "type": "uint256"
        },
        {
          "internalType": "uint256",
          "name": "needed",
          "type": "uint256"
        }
      ],
      "name": "ERC20InsufficientBalance",
      "type": "error"
    },
    {
      "inputs": [
        {
          "internalType": "address",
          "name": "approver",
          "type": "address"
        }
      ],
      "name": "ERC20InvalidApprover",
      "type": "error"
    },
    {
      "inputs": [
        {
          "internalType": "address",
          "name": "receiver",
          "type": "address"
        }
      ],
      "name": "ERC20InvalidReceiver",
      "type": "error"
    },
    {
      "inputs": [
        {
          "internalType": "address",
          "name": "sender",
          "type": "address"
        }
      ],
      "name": "ERC20InvalidSender",
      "type": "error"
    },
    {
      "inputs": [
        {
          "internalType": "address",
          "name": "spender",
          "type": "address"
        }
      ],
      "name": "ERC20InvalidSpender",
      "type": "error"
    },
    {
      "inputs": [],
      "name": "InvalidInitialization",
      "type": "error"
    },
    {
      "inputs": [],
      "name": "NotInitializing",
      "type": "error"
    },
    {
      "inputs": [],
      "name": "OnlyFactory",
      "type": "error"
    },
    {
      "inputs": [],
      "name": "ZeroAddress",
      "type": "error"
    },
    {
      "anonymous": false,
      "inputs": [
        {
          "indexed": true,
          "internalType": "address",
          "name": "owner",
          "type": "address"
        },
        {
          "indexed": true,
          "internalType": "address",
          "name": "spender",
          "type": "address"
        },
        {
          "indexed": false,
          "internalType": "uint256",
          "name": "value",
          "type": "uint256"
        }
      ],
      "name": "Approval",
      "type": "event"
    },
    {
      "anonymous": false,
      "inputs": [
        {
          "indexed": true,
          "internalType": "address",
          "name": "recipient",
          "type": "address"
        },
        {
          "indexed": false,
          "internalType": "uint256",
          "name": "amount",
          "type": "uint256"
        }
      ],
      "name": "InitialMintCompleted",
      "type": "event"
    },
    {
      "anonymous": false,
      "inputs": [
        {
          "indexed": false,
          "internalType": "uint64",
          "name": "version",
          "type": "uint64"
        }
      ],
      "name": "Initialized",
      "type": "event"
    },
    {
      "anonymous": false,
      "inputs": [
        {
          "indexed": true,
          "internalType": "address",
          "name": "from",
          "type": "address"
        },
        {
          "indexed": true,
          "internalType": "address",
          "name": "to",
          "type": "address"
        },
        {
          "indexed": false,
          "internalType": "uint256",
          "name": "value",
          "type": "uint256"
        }
      ],
      "name": "Transfer",
      "type": "event"
    },
    {
      "inputs": [],
      "name": "TOTAL_SUPPLY",
      "outputs": [
        {
          "internalType": "uint256",
          "name": "",
          "type": "uint256"
        }
      ],
      "stateMutability": "view",
      "type": "function"
    },
    {
      "inputs": [
        {
          "internalType": "address",
          "name": "owner",
          "type": "address"
        },
        {
          "internalType": "address",
          "name": "spender",
          "type": "address"
        }
      ],
      "name": "allowance",
      "outputs": [
        {
          "internalType": "uint256",
          "name": "",
          "type": "uint256"
        }
      ],
      "stateMutability": "view",
      "type": "function"
    },
    {
      "inputs": [
        {
          "internalType": "address",
          "name": "spender",
          "type": "address"
        },
        {
          "internalType": "uint256",
          "name": "value",
          "type": "uint256"
        }
      ],
      "name": "approve",
      "outputs": [
        {
          "internalType": "bool",
          "name": "",
          "type": "bool"
        }
      ],
      "stateMutability": "nonpayable",
      "type": "function"
    },
    {
      "inputs": [
        {
          "internalType": "address",
          "name": "account",
          "type": "address"
        }
      ],
      "name": "balanceOf",
      "outputs": [
        {
          "internalType": "uint256",
          "name": "",
          "type": "uint256"
        }
      ],
      "stateMutability": "view",
      "type": "function"
    },
    {
      "inputs": [],
      "name": "decimals",
      "outputs": [
        {
          "internalType": "uint8",
          "name": "",
          "type": "uint8"
        }
      ],
      "stateMutability": "view",
      "type": "function"
    },
    {
      "inputs": [],
      "name": "factory",
      "outputs": [
        {
          "internalType": "address",
          "name": "",
          "type": "address"
        }
      ],
      "stateMutability": "view",
      "type": "function"
    },
    {
      "inputs": [
        {
          "internalType": "string",
          "name": "name_",
          "type": "string"
        },
        {
          "internalType": "string",
          "name": "symbol_",
          "type": "string"
        }
      ],
      "name": "initialize",
      "outputs": [],
      "stateMutability": "nonpayable",
      "type": "function"
    },
    {
      "inputs": [],
      "name": "isMinted",
      "outputs": [
        {
          "internalType": "bool",
          "name": "",
          "type": "bool"
        }
      ],
      "stateMutability": "view",
      "type": "function"
    },
    {
      "inputs": [
        {
          "internalType": "address",
          "name": "to",
          "type": "address"
        }
      ],
      "name": "mintTotalSupply",
      "outputs": [],
      "stateMutability": "nonpayable",
      "type": "function"
    },
    {
      "inputs": [],
      "name": "name",
      "outputs": [
        {
          "internalType": "string",
          "name": "",
          "type": "string"
        }
      ],
      "stateMutability": "view",
      "type": "function"
    },
    {
      "inputs": [],
      "name": "symbol",
      "outputs": [
        {
          "internalType": "string",
          "name": "",
          "type": "string"
        }
      ],
      "stateMutability": "view",
      "type": "function"
    },
    {
      "inputs": [],
      "name": "totalSupply",
      "outputs": [
        {
          "internalType": "uint256",
          "name": "",
          "type": "uint256"
        }
      ],
      "stateMutability": "view",
      "type": "function"
    },
    {
      "inputs": [
        {
          "internalType": "address",
          "name": "to",
          "type": "address"
        },
        {
          "internalType": "uint256",
          "name": "value",
          "type": "uint256"
        }
      ],
      "name": "transfer",
      "outputs": [
        {
          "internalType": "bool",
          "name": "",
          "type": "bool"
        }
      ],
      "stateMutability": "nonpayable",
      "type": "function"
    },
    {
      "inputs": [
        {
          "internalType": "address",
          "name": "from",
          "type": "address"
        },
        {
          "internalType": "address",
          "name": "to",
          "type": "address"
        },
        {
          "internalType": "uint256",
          "name": "value",
          "type": "uint256"
        }
      ],
      "name": "transferFrom",
      "outputs": [
        {
          "internalType": "bool",
          "name": "",
          "type": "bool"
        }
      ],
      "stateMutability": "nonpayable",
      "type": "function"
    }
  ],
  "transactionHash": "0xd97e6378b15977c568c734c98a318e475baa36a03d08429fdf1e549837718efe",
  "args": [],
  "numDeployments": 1,
  "solcInputHash": "755db2098558d55cecbeb68d819ee939",
  "bytecode": "0x608060405234801561001057600080fd5b5061001961001e565b6100d0565b7ff0c57e16840df040f15088dc2f81fe391c3923bec73e23a9662efc9c229c6a00805468010000000000000000900460ff161561006e5760405163f92ee8a960e01b815260040160405180910390fd5b80546001600160401b03908116146100cd5780546001600160401b0319166001600160401b0390811782556040519081527fc7f505b2f371ae2175ee4913f4499e1f2633a7b5936321eed1cdaeb6115181d29060200160405180910390a15b50565b610e5b806100df6000396000f3fe608060405234801561001057600080fd5b50600436106100ea5760003560e01c80634cd88b761161008c57806395d89b411161006657806395d89b41146101ff578063a9059cbb14610207578063c45a01551461021a578063dd62ed3e1461024a57600080fd5b80634cd88b76146101a357806370a08231146101b6578063902d55a5146101ec57600080fd5b806318160ddd116100c857806318160ddd1461014557806323b872dd14610176578063313ce5671461018957806336ae50401461019857600080fd5b806306fdde03146100ef578063095ea7b31461010d57806316a5431414610130575b600080fd5b6100f761025d565b6040516101049190610a70565b60405180910390f35b61012061011b366004610ada565b610320565b6040519015158152602001610104565b61014361013e366004610b04565b61033a565b005b7f52c63247e1f47db19d5ce0460030c497f067ca4cebf71ba98eeadabe20bace02545b604051908152602001610104565b610120610184366004610b26565b61042c565b60405160128152602001610104565b60005460ff16610120565b6101436101b1366004610c05565b610450565b6101686101c4366004610b04565b6001600160a01b03166000908152600080516020610e06833981519152602052604090205490565b6101686b033b2e3c9fd0803ce800000081565b6100f761057c565b610120610215366004610ada565b6105bb565b6000546102329061010090046001600160a01b031681565b6040516001600160a01b039091168152602001610104565b610168610258366004610c69565b6105c9565b7f52c63247e1f47db19d5ce0460030c497f067ca4cebf71ba98eeadabe20bace038054606091600080516020610e068339815191529161029c90610c9c565b80601f01602080910402602001604051908101604052809291908181526020018280546102c890610c9c565b80156103155780601f106102ea57610100808354040283529160200191610315565b820191906000526020600020905b8154815290600101906020018083116102f857829003601f168201915b505050505091505090565b60003361032e818585610613565b60019150505b92915050565b60005461010090046001600160a01b0316331461036a57604051630636a15760e11b815260040160405180910390fd5b60005460ff161561038e57604051631bbdf5c560e31b815260040160405180910390fd5b6001600160a01b0381166103b55760405163d92e233d60e01b815260040160405180910390fd5b6103cb816b033b2e3c9fd0803ce8000000610625565b6000805460ff191660011790556040516001600160a01b038216907fd7ba77d87d9f77d4eed01590f7557e587d19f6a622423649ba865ca14100462290610421906b033b2e3c9fd0803ce8000000815260200190565b60405180910390a250565b60003361043a858285610664565b6104458585856106ca565b506001949350505050565b7ff0c57e16840df040f15088dc2f81fe391c3923bec73e23a9662efc9c229c6a008054600160401b810460ff16159067ffffffffffffffff166000811580156104965750825b905060008267ffffffffffffffff1660011480156104b35750303b155b9050811580156104c1575080155b156104df5760405163f92ee8a960e01b815260040160405180910390fd5b845467ffffffffffffffff19166001178555831561050957845460ff60401b1916600160401b1785555b6105138787610729565b600080546001600160a81b031916336101000260ff1916179055831561057357845460ff60401b19168555604051600181527fc7f505b2f371ae2175ee4913f4499e1f2633a7b5936321eed1cdaeb6115181d29060200160405180910390a15b50505050505050565b7f52c63247e1f47db19d5ce0460030c497f067ca4cebf71ba98eeadabe20bace048054606091600080516020610e068339815191529161029c90610c9c565b60003361032e8185856106ca565b6001600160a01b0391821660009081527f52c63247e1f47db19d5ce0460030c497f067ca4cebf71ba98eeadabe20bace016020908152604080832093909416825291909152205490565b610620838383600161073b565b505050565b6001600160a01b0382166106545760405163ec442f0560e01b8152600060048201526024015b60405180910390fd5b61066060008383610823565b5050565b600061067084846105c9565b905060001981146106c457818110156106b557604051637dc7a0d960e11b81526001600160a01b0384166004820152602481018290526044810183905260640161064b565b6106c48484848403600061073b565b50505050565b6001600160a01b0383166106f457604051634b637e8f60e11b81526000600482015260240161064b565b6001600160a01b03821661071e5760405163ec442f0560e01b81526000600482015260240161064b565b610620838383610823565b610731610896565b61066082826108e1565b600080516020610e068339815191526001600160a01b0385166107745760405163e602df0560e01b81526000600482015260240161064b565b6001600160a01b03841661079e57604051634a1406b160e11b81526000600482015260240161064b565b6001600160a01b0380861660009081526001830160209081526040808320938816835292905220839055811561081c57836001600160a01b0316856001600160a01b03167f8c5be1e5ebec7d5bd14f71427d1e84f3dd0314c0f7b2291e5b200ac8c7c3b9258560405161081391815260200190565b60405180910390a35b5050505050565b60005460ff1615801561083e57506001600160a01b03831615155b1561088b5760405162461bcd60e51b815260206004820152601e60248201527f5472616e73666572732064697361626c6564206265666f7265206d696e740000604482015260640161064b565b610620838383610932565b7ff0c57e16840df040f15088dc2f81fe391c3923bec73e23a9662efc9c229c6a0054600160401b900460ff166108df57604051631afcd79f60e31b815260040160405180910390fd5b565b6108e9610896565b600080516020610e068339815191527f52c63247e1f47db19d5ce0460030c497f067ca4cebf71ba98eeadabe20bace036109238482610d24565b50600481016106c48382610d24565b600080516020610e068339815191526001600160a01b03841661096e57818160020160008282546109639190610de4565b909155506109e09050565b6001600160a01b038416600090815260208290526040902054828110156109c15760405163391434e360e21b81526001600160a01b0386166004820152602481018290526044810184905260640161064b565b6001600160a01b03851660009081526020839052604090209083900390555b6001600160a01b0383166109fe576002810180548390039055610a1d565b6001600160a01b03831660009081526020829052604090208054830190555b826001600160a01b0316846001600160a01b03167fddf252ad1be2c89b69c2b068fc378daa952ba7f163c4a11628f55a4df523b3ef84604051610a6291815260200190565b60405180910390a350505050565b600060208083528351808285015260005b81811015610a9d57858101830151858201604001528201610a81565b506000604082860101526040601f19601f8301168501019250505092915050565b80356001600160a01b0381168114610ad557600080fd5b919050565b60008060408385031215610aed57600080fd5b610af683610abe565b946020939093013593505050565b600060208284031215610b1657600080fd5b610b1f82610abe565b9392505050565b600080600060608486031215610b3b57600080fd5b610b4484610abe565b9250610b5260208501610abe565b9150604084013590509250925092565b634e487b7160e01b600052604160045260246000fd5b600082601f830112610b8957600080fd5b813567ffffffffffffffff80821115610ba457610ba4610b62565b604051601f8301601f19908116603f01168101908282118183101715610bcc57610bcc610b62565b81604052838152866020858801011115610be557600080fd5b836020870160208301376000602085830101528094505050505092915050565b60008060408385031215610c1857600080fd5b823567ffffffffffffffff80821115610c3057600080fd5b610c3c86838701610b78565b93506020850135915080821115610c5257600080fd5b50610c5f85828601610b78565b9150509250929050565b60008060408385031215610c7c57600080fd5b610c8583610abe565b9150610c9360208401610abe565b90509250929050565b600181811c90821680610cb057607f821691505b602082108103610cd057634e487b7160e01b600052602260045260246000fd5b50919050565b601f82111561062057600081815260208120601f850160051c81016020861015610cfd5750805b601f850160051c820191505b81811015610d1c57828155600101610d09565b505050505050565b815167ffffffffffffffff811115610d3e57610d3e610b62565b610d5281610d4c8454610c9c565b84610cd6565b602080601f831160018114610d875760008415610d6f5750858301515b600019600386901b1c1916600185901b178555610d1c565b600085815260208120601f198616915b82811015610db657888601518255948401946001909101908401610d97565b5085821015610dd45787850151600019600388901b60f8161c191681555b5050505050600190811b01905550565b8082018082111561033457634e487b7160e01b600052601160045260246000fdfe52c63247e1f47db19d5ce0460030c497f067ca4cebf71ba98eeadabe20bace00a26469706673582212206cb8e57f6aba7168baa088b2011b54f9886cffc08148a79443667cf76298fc7664736f6c63430008140033",
  "devdoc": {
    "details": "Deployed via minimal proxy pattern with fixed total supply",
    "errors": {
      "ERC20InsufficientAllowance(address,uint256,uint256)": [
        {
          "details": "Indicates a failure with the `spender`s `allowance`. Used in transfers.",
          "params": {
            "allowance": "Amount of tokens a `spender` is allowed to operate with.",
            "needed": "Minimum amount required to perform a transfer.",
            "spender": "Address that may be allowed to operate on tokens without being their owner."
          }
        }
      ],
      "ERC20InsufficientBalance(address,uint256,uint256)": [
        {
          "details": "Indicates an error related to the current `balance` of a `sender`. Used in transfers.",
          "params": {
            "balance": "Current balance for the interacting account.",
            "needed": "Minimum amount required to perform a transfer.",
            "sender": "Address whose tokens are being transferred."
          }
        }
      ],
      "ERC20InvalidApprover(address)": [
        {
          "details": "Indicates a failure with the `approver` of a token to be approved. Used in approvals.",
          "params": {
            "approver": "Address initiating an approval operation."
          }
        }
      ],
      "ERC20InvalidReceiver(address)": [
        {
          "details": "Indicates a failure with the token `receiver`. Used in transfers.",
          "params": {
            "receiver": "Address to which tokens are being transferred."
          }
        }
      ],
      "ERC20InvalidSender(address)": [
        {
          "details": "Indicates a failure with the token `sender`. Used in transfers.",
          "params": {
            "sender": "Address whose tokens are being transferred."
          }
        }
      ],
      "ERC20InvalidSpender(address)": [
        {
          "details": "Indicates a failure with the `spender` to be approved. Used in approvals.",
          "params": {
            "spender": "Address that may be allowed to operate on tokens without being their owner."
          }
        }
      ],
      "InvalidInitialization()": [
        {
          "details": "The contract is already initialized."
        }
      ],
      "NotInitializing()": [
        {
          "details": "The contract is not initializing."
        }
      ]
    },
    "events": {
      "Approval(address,address,uint256)": {
        "details": "Emitted when the allowance of a `spender` for an `owner` is set by a call to {approve}. `value` is the new allowance."
      },
      "Initialized(uint64)": {
        "details": "Triggered when the contract has been initialized or reinitialized."
      },
      "Transfer(address,address,uint256)": {
        "details": "Emitted when `value` tokens are moved from one account (`from`) to another (`to`). Note that `value` may be zero."
      }
    },
    "kind": "dev",
    "methods": {
      "allowance(address,address)": {
        "details": "See {IERC20-allowance}."
      },
      "approve(address,uint256)": {
        "details": "See {IERC20-approve}. NOTE: If `value` is the maximum `uint256`, the allowance is not updated on `transferFrom`. This is semantically equivalent to an infinite approval. Requirements: - `spender` cannot be the zero address."
      },
      "balanceOf(address)": {
        "details": "See {IERC20-balanceOf}."
      },
      "constructor": {
        "details": "Constructor disabled since this contract is meant to be used behind a proxy"
      },
      "decimals()": {
        "details": "Returns the number of decimals used to get its user representation. For example, if `decimals` equals `2`, a balance of `505` tokens should be displayed to a user as `5.05` (`505 / 10 ** 2`). Tokens usually opt for a value of 18, imitating the relationship between Ether and Wei. This is the default value returned by this function, unless it's overridden. NOTE: This information is only used for _display_ purposes: it in no way affects any of the arithmetic of the contract, including {IERC20-balanceOf} and {IERC20-transfer}."
      },
      "initialize(string,string)": {
        "params": {
          "name_": "Token name",
          "symbol_": "Token symbol"
        }
      },
      "isMinted()": {
        "returns": {
          "_0": "Boolean indicating if tokens have been minted"
        }
      },
      "mintTotalSupply(address)": {
        "details": "Can only be called once by the factory",
        "params": {
          "to": "Address to receive the minted tokens"
        }
      },
      "name()": {
        "details": "Returns the name of the token."
      },
      "symbol()": {
        "details": "Returns the symbol of the token, usually a shorter version of the name."
      },
      "totalSupply()": {
        "details": "See {IERC20-totalSupply}."
      },
      "transfer(address,uint256)": {
        "details": "See {IERC20-transfer}. Requirements: - `to` cannot be the zero address. - the caller must have a balance of at least `value`."
      },
      "transferFrom(address,address,uint256)": {
        "details": "See {IERC20-transferFrom}. Skips emitting an {Approval} event indicating an allowance update. This is not required by the ERC. See {xref-ERC20-_approve-address-address-uint256-bool-}[_approve]. NOTE: Does not update the allowance if the current allowance is the maximum `uint256`. Requirements: - `from` and `to` cannot be the zero address. - `from` must have a balance of at least `value`. - the caller must have allowance for ``from``'s tokens of at least `value`."
      }
    },
    "title": "TokenImplementation",
    "version": 1
  },
  "userdoc": {
    "errors": {
      "AlreadyMinted()": [
        {
          "notice": "Thrown when attempting to mint tokens more than once"
        }
      ],
      "OnlyFactory()": [
        {
          "notice": "Thrown when caller is not the factory"
        }
      ],
      "ZeroAddress()": [
        {
          "notice": "Thrown when an address parameter is zero"
        }
      ]
    },
    "events": {
      "InitialMintCompleted(address,uint256)": {
        "notice": "Emitted when the initial token supply is minted"
      }
    },
    "kind": "user",
    "methods": {
      "initialize(string,string)": {
        "notice": "Initialize the token contract"
      },
      "isMinted()": {
        "notice": "Check if the total supply has been minted"
      },
      "mintTotalSupply(address)": {
        "notice": "Mint the total supply of tokens to a specified address"
      }
    },
    "notice": "Implementation of the ERC20 token with one-time mint capability",
    "version": 1
  },
  "storageLayout": {
    "storage": [
      {
        "astId": 10848,
        "contract": "contracts/TokenImplementation.sol:TokenImplementation",
        "label": "_minted",
        "offset": 0,
        "slot": "0",
        "type": "t_bool"
      },
      {
        "astId": 10850,
        "contract": "contracts/TokenImplementation.sol:TokenImplementation",
        "label": "factory",
        "offset": 1,
        "slot": "0",
        "type": "t_address"
      }
    ],
    "types": {
      "t_address": {
        "encoding": "inplace",
        "label": "address",
        "numberOfBytes": "20"
      },
      "t_bool": {
        "encoding": "inplace",
        "label": "bool",
        "numberOfBytes": "1"
      }
    }
  }
}