{
  "address": "0x0f2f4C29861B6B3E1A66b340c5040493FaF334F4",
  "abi": [
    {
      "inputs": [],
      "stateMutability": "nonpayable",
      "type": "constructor"
    },
    {
      "inputs": [],
      "name": "FailedDeployment",
      "type": "error"
    },
    {
      "inputs": [],
      "name": "FeeWithdrawalFailed",
      "type": "error"
    },
    {
      "inputs": [],
      "name": "InitializationFailed",
      "type": "error"
    },
    {
      "inputs": [
        {
          "internalType": "uint256",
          "name": "balance",
          "type": "uint256"
        },
        {
          "internalType": "uint256",
          "name": "needed",
          "type": "uint256"
        }
      ],
      "name": "InsufficientBalance",
      "type": "error"
    },
    {
      "inputs": [
        {
          "internalType": "uint256",
          "name": "provided",
          "type": "uint256"
        },
        {
          "internalType": "uint256",
          "name": "required",
          "type": "uint256"
        }
      ],
      "name": "InsufficientDeploymentFee",
      "type": "error"
    },
    {
      "inputs": [],
      "name": "InvalidDeploymentParameters",
      "type": "error"
    },
    {
      "inputs": [],
      "name": "InvalidInitialization",
      "type": "error"
    },
    {
      "inputs": [],
      "name": "NoFeesToWithdraw",
      "type": "error"
    },
    {
      "inputs": [],
      "name": "NotInitializing",
      "type": "error"
    },
    {
      "inputs": [
        {
          "internalType": "address",
          "name": "owner",
          "type": "address"
        }
      ],
      "name": "OwnableInvalidOwner",
      "type": "error"
    },
    {
      "inputs": [
        {
          "internalType": "address",
          "name": "account",
          "type": "address"
        }
      ],
      "name": "OwnableUnauthorizedAccount",
      "type": "error"
    },
    {
      "inputs": [],
      "name": "ReentrancyGuardReentrantCall",
      "type": "error"
    },
    {
      "inputs": [],
      "name": "RefundFailed",
      "type": "error"
    },
    {
      "inputs": [],
      "name": "TokenMintingFailed",
      "type": "error"
    },
    {
      "inputs": [],
      "name": "Unauthorized",
      "type": "error"
    },
    {
      "inputs": [],
      "name": "ZeroAddress",
      "type": "error"
    },
    {
      "anonymous": false,
      "inputs": [
        {
          "indexed": false,
          "internalType": "uint256",
          "name": "virtualEth",
          "type": "uint256"
        },
        {
          "indexed": false,
          "internalType": "uint256",
          "name": "preBondingTarget",
          "type": "uint256"
        },
        {
          "indexed": false,
          "internalType": "uint256",
          "name": "bondingTarget",
          "type": "uint256"
        },
        {
          "indexed": false,
          "internalType": "uint256",
          "name": "minContribution",
          "type": "uint256"
        },
        {
          "indexed": false,
          "internalType": "uint24",
          "name": "poolFee",
          "type": "uint24"
        }
      ],
      "name": "BondingCurveSettingsUpdated",
      "type": "event"
    },
    {
      "anonymous": false,
      "inputs": [
        {
          "indexed": true,
          "internalType": "address",
          "name": "bondingCurveAddress",
          "type": "address"
        },
        {
          "indexed": true,
          "internalType": "address",
          "name": "tokenAddress",
          "type": "address"
        },
        {
          "indexed": true,
          "internalType": "address",
          "name": "owner",
          "type": "address"
        },
        {
          "indexed": false,
          "internalType": "string",
          "name": "name",
          "type": "string"
        },
        {
          "indexed": false,
          "internalType": "string",
          "name": "symbol",
          "type": "string"
        }
      ],
      "name": "BondingCurveSystemDeployed",
      "type": "event"
    },
    {
      "anonymous": false,
      "inputs": [
        {
          "indexed": false,
          "internalType": "uint256",
          "name": "oldFee",
          "type": "uint256"
        },
        {
          "indexed": false,
          "internalType": "uint256",
          "name": "newFee",
          "type": "uint256"
        }
      ],
      "name": "DeploymentFeeUpdated",
      "type": "event"
    },
    {
      "anonymous": false,
      "inputs": [
        {
          "indexed": true,
          "internalType": "address",
          "name": "recipient",
          "type": "address"
        },
        {
          "indexed": false,
          "internalType": "uint256",
          "name": "amount",
          "type": "uint256"
        }
      ],
      "name": "FeesWithdrawn",
      "type": "event"
    },
    {
      "anonymous": false,
      "inputs": [
        {
          "indexed": false,
          "internalType": "uint64",
          "name": "version",
          "type": "uint64"
        }
      ],
      "name": "Initialized",
      "type": "event"
    },
    {
      "anonymous": false,
      "inputs": [
        {
          "indexed": true,
          "internalType": "address",
          "name": "previousOwner",
          "type": "address"
        },
        {
          "indexed": true,
          "internalType": "address",
          "name": "newOwner",
          "type": "address"
        }
      ],
      "name": "OwnershipTransferStarted",
      "type": "event"
    },
    {
      "anonymous": false,
      "inputs": [
        {
          "indexed": true,
          "internalType": "address",
          "name": "previousOwner",
          "type": "address"
        },
        {
          "indexed": true,
          "internalType": "address",
          "name": "newOwner",
          "type": "address"
        }
      ],
      "name": "OwnershipTransferred",
      "type": "event"
    },
    {
      "inputs": [],
      "name": "acceptOwnership",
      "outputs": [],
      "stateMutability": "nonpayable",
      "type": "function"
    },
    {
      "inputs": [
        {
          "internalType": "string",
          "name": "name",
          "type": "string"
        },
        {
          "internalType": "string",
          "name": "symbol",
          "type": "string"
        }
      ],
      "name": "deployBondingCurveSystem",
      "outputs": [
        {
          "internalType": "address",
          "name": "tokenAddress",
          "type": "address"
        },
        {
          "internalType": "address",
          "name": "bondingCurveAddress",
          "type": "address"
        }
      ],
      "stateMutability": "payable",
      "type": "function"
    },
    {
      "inputs": [
        {
          "internalType": "address",
          "name": "token",
          "type": "address"
        }
      ],
      "name": "getBondingCurveForToken",
      "outputs": [
        {
          "internalType": "address",
          "name": "",
          "type": "address"
        }
      ],
      "stateMutability": "view",
      "type": "function"
    },
    {
      "inputs": [],
      "name": "getBondingCurveImplementation",
      "outputs": [
        {
          "internalType": "address",
          "name": "",
          "type": "address"
        }
      ],
      "stateMutability": "view",
      "type": "function"
    },
    {
      "inputs": [],
      "name": "getBondingCurveSettings",
      "outputs": [
        {
          "components": [
            {
              "internalType": "uint256",
              "name": "virtualEth",
              "type": "uint256"
            },
            {
              "internalType": "uint256",
              "name": "preBondingTarget",
              "type": "uint256"
            },
            {
              "internalType": "uint256",
              "name": "bondingTarget",
              "type": "uint256"
            },
            {
              "internalType": "uint256",
              "name": "minContribution",
              "type": "uint256"
            },
            {
              "internalType": "uint24",
              "name": "poolFee",
              "type": "uint24"
            },
            {
              "internalType": "uint24",
              "name": "sellFee",
              "type": "uint24"
            },
            {
              "internalType": "address",
              "name": "uniswapV3Factory",
              "type": "address"
            },
            {
              "internalType": "address",
              "name": "positionManager",
              "type": "address"
            },
            {
              "internalType": "address",
              "name": "weth",
              "type": "address"
            },
            {
              "internalType": "address",
              "name": "feeTo",
              "type": "address"
            }
          ],
          "internalType": "struct IFactory.BondingCurveSettings",
          "name": "",
          "type": "tuple"
        }
      ],
      "stateMutability": "view",
      "type": "function"
    },
    {
      "inputs": [],
      "name": "getDeploymentFee",
      "outputs": [
        {
          "internalType": "uint256",
          "name": "",
          "type": "uint256"
        }
      ],
      "stateMutability": "view",
      "type": "function"
    },
    {
      "inputs": [],
      "name": "getLockContract",
      "outputs": [
        {
          "internalType": "address",
          "name": "",
          "type": "address"
        }
      ],
      "stateMutability": "view",
      "type": "function"
    },
    {
      "inputs": [
        {
          "internalType": "address",
          "name": "bondingCurve",
          "type": "address"
        }
      ],
      "name": "getTokenForBondingCurve",
      "outputs": [
        {
          "internalType": "address",
          "name": "",
          "type": "address"
        }
      ],
      "stateMutability": "view",
      "type": "function"
    },
    {
      "inputs": [],
      "name": "getTokenImplementation",
      "outputs": [
        {
          "internalType": "address",
          "name": "",
          "type": "address"
        }
      ],
      "stateMutability": "view",
      "type": "function"
    },
    {
      "inputs": [
        {
          "internalType": "uint256",
          "name": "factoryFees",
          "type": "uint256"
        },
        {
          "internalType": "address",
          "name": "owner",
          "type": "address"
        },
        {
          "internalType": "address",
          "name": "tokenImpl",
          "type": "address"
        },
        {
          "internalType": "address",
          "name": "bondingCurveImpl",
          "type": "address"
        },
        {
          "internalType": "address",
          "name": "lockContractAddr",
          "type": "address"
        },
        {
          "components": [
            {
              "internalType": "uint256",
              "name": "virtualEth",
              "type": "uint256"
            },
            {
              "internalType": "uint256",
              "name": "preBondingTarget",
              "type": "uint256"
            },
            {
              "internalType": "uint256",
              "name": "bondingTarget",
              "type": "uint256"
            },
            {
              "internalType": "uint256",
              "name": "minContribution",
              "type": "uint256"
            },
            {
              "internalType": "uint24",
              "name": "poolFee",
              "type": "uint24"
            },
            {
              "internalType": "uint24",
              "name": "sellFee",
              "type": "uint24"
            },
            {
              "internalType": "address",
              "name": "uniswapV3Factory",
              "type": "address"
            },
            {
              "internalType": "address",
              "name": "positionManager",
              "type": "address"
            },
            {
              "internalType": "address",
              "name": "weth",
              "type": "address"
            },
            {
              "internalType": "address",
              "name": "feeTo",
              "type": "address"
            }
          ],
          "internalType": "struct IFactory.BondingCurveSettings",
          "name": "initialSettings",
          "type": "tuple"
        }
      ],
      "name": "initialize",
      "outputs": [],
      "stateMutability": "nonpayable",
      "type": "function"
    },
    {
      "inputs": [],
      "name": "owner",
      "outputs": [
        {
          "internalType": "address",
          "name": "",
          "type": "address"
        }
      ],
      "stateMutability": "view",
      "type": "function"
    },
    {
      "inputs": [],
      "name": "pendingOwner",
      "outputs": [
        {
          "internalType": "address",
          "name": "",
          "type": "address"
        }
      ],
      "stateMutability": "view",
      "type": "function"
    },
    {
      "inputs": [],
      "name": "renounceOwnership",
      "outputs": [],
      "stateMutability": "nonpayable",
      "type": "function"
    },
    {
      "inputs": [
        {
          "internalType": "address",
          "name": "newOwner",
          "type": "address"
        }
      ],
      "name": "transferOwnership",
      "outputs": [],
      "stateMutability": "nonpayable",
      "type": "function"
    },
    {
      "inputs": [
        {
          "components": [
            {
              "internalType": "uint256",
              "name": "virtualEth",
              "type": "uint256"
            },
            {
              "internalType": "uint256",
              "name": "preBondingTarget",
              "type": "uint256"
            },
            {
              "internalType": "uint256",
              "name": "bondingTarget",
              "type": "uint256"
            },
            {
              "internalType": "uint256",
              "name": "minContribution",
              "type": "uint256"
            },
            {
              "internalType": "uint24",
              "name": "poolFee",
              "type": "uint24"
            },
            {
              "internalType": "uint24",
              "name": "sellFee",
              "type": "uint24"
            },
            {
              "internalType": "address",
              "name": "uniswapV3Factory",
              "type": "address"
            },
            {
              "internalType": "address",
              "name": "positionManager",
              "type": "address"
            },
            {
              "internalType": "address",
              "name": "weth",
              "type": "address"
            },
            {
              "internalType": "address",
              "name": "feeTo",
              "type": "address"
            }
          ],
          "internalType": "struct IFactory.BondingCurveSettings",
          "name": "newSettings",
          "type": "tuple"
        }
      ],
      "name": "updateBondingCurveSettings",
      "outputs": [],
      "stateMutability": "nonpayable",
      "type": "function"
    },
    {
      "inputs": [
        {
          "internalType": "uint256",
          "name": "newFee",
          "type": "uint256"
        }
      ],
      "name": "updateDeploymentFee",
      "outputs": [],
      "stateMutability": "nonpayable",
      "type": "function"
    },
    {
      "inputs": [
        {
          "internalType": "address",
          "name": "recipient",
          "type": "address"
        }
      ],
      "name": "withdrawFees",
      "outputs": [],
      "stateMutability": "nonpayable",
      "type": "function"
    },
    {
      "stateMutability": "payable",
      "type": "receive"
    }
  ],
  "transactionHash": "0xacf7452d750efe6af7c979bcec30fac2c9fd114a473ca90d0f1cbf5b6fe519cb",
  "args": [],
  "numDeployments": 1,
  "solcInputHash": "241d2a36009e5f3b5539b7fb7f9face7",
  "bytecode": "0x608060405234801561001057600080fd5b5061001961001e565b6100d0565b7ff0c57e16840df040f15088dc2f81fe391c3923bec73e23a9662efc9c229c6a00805468010000000000000000900460ff161561006e5760405163f92ee8a960e01b815260040160405180910390fd5b80546001600160401b03908116146100cd5780546001600160401b0319166001600160401b0390811782556040519081527fc7f505b2f371ae2175ee4913f4499e1f2633a7b5936321eed1cdaeb6115181d29060200160405180910390a15b50565b6115ab806100df6000396000f3fe6080604052600436106101025760003560e01c806379ba509711610095578063c70ff3a011610064578063c70ff3a01461039e578063d0c05a92146103be578063e30c3978146103dc578063f1f7c6fc146103f1578063f2fde38b1461040f57600080fd5b806379ba50971461024a5780638da5cb5b1461025f578063a290566814610274578063b2834bb11461036557600080fd5b806355896f9c116100d157806355896f9c14610193578063593726b6146101c6578063709bc7f314610217578063715018a61461023557600080fd5b8063164e68de1461010e578063432c60581461013057806346c549cc14610150578063499200db1461017357600080fd5b3661010957005b600080fd5b34801561011a57600080fd5b5061012e6101293660046110c6565b61042f565b005b34801561013c57600080fd5b5061012e61014b366004611103565b61053c565b34801561015c57600080fd5b506003546040519081526020015b60405180910390f35b34801561017f57600080fd5b5061012e61018e366004611120565b610607565b6101a66101a1366004611182565b610654565b604080516001600160a01b0393841681529290911660208301520161016a565b3480156101d257600080fd5b506101ff6101e13660046110c6565b6001600160a01b039081166000908152600d60205260409020541690565b6040516001600160a01b03909116815260200161016a565b34801561022357600080fd5b506000546001600160a01b03166101ff565b34801561024157600080fd5b5061012e610a8d565b34801561025657600080fd5b5061012e610aa1565b34801561026b57600080fd5b506101ff610ae9565b34801561028057600080fd5b506103586040805161014081018252600080825260208201819052918101829052606081018290526080810182905260a0810182905260c0810182905260e0810182905261010081018290526101208101919091525060408051610140810182526004548152600554602082015260065491810191909152600754606082015260085462ffffff8082166080840152630100000082041660a08301526001600160a01b036601000000000000909104811660c0830152600954811660e0830152600a548116610100830152600b541661012082015290565b60405161016a91906111ee565b34801561037157600080fd5b506101ff6103803660046110c6565b6001600160a01b039081166000908152600c60205260409020541690565b3480156103aa57600080fd5b5061012e6103b93660046112a9565b610b1e565b3480156103ca57600080fd5b506002546001600160a01b03166101ff565b3480156103e857600080fd5b506101ff610d67565b3480156103fd57600080fd5b506001546001600160a01b03166101ff565b34801561041b57600080fd5b5061012e61042a3660046110c6565b610d90565b610437610e15565b6001600160a01b03811661045e5760405163d92e233d60e01b815260040160405180910390fd5b47600081900361048157604051630d00db4d60e31b815260040160405180910390fd5b6000826001600160a01b03168260405160006040518083038185875af1925050503d80600081146104ce576040519150601f19603f3d011682016040523d82523d6000602084013e6104d3565b606091505b50509050806104f457604051620b587d60e91b815260040160405180910390fd5b826001600160a01b03167fc0819c13be868895eb93e40eaceb96de976442fa1d404e5c55f14bb65a8c489a8360405161052f91815260200190565b60405180910390a2505050565b610544610e15565b806004610551828261136b565b506064905061056282356014611482565b61056c9190611499565b600581905560065411610592576040516308429e4760e31b815260040160405180910390fd5b7fe4565e87b65527c59a6c2aa2549087a9ccc59d3f74601cad058f3c704018150c81356020830135604084013560608501356105d460a08701608088016114bb565b60408051958652602086019490945292840191909152606083015262ffffff16608082015260a00160405180910390a150565b61060f610e15565b600380549082905560408051828152602081018490527fbade80ae0982a2d3106c4f5afa708793d20a9d6441a6440011f99e9f69ad5f3c910160405180910390a15050565b60008061065f610e47565b60035434101561069457600354604051632e1932e360e11b815234600482015260248101919091526044015b60405180910390fd5b84158061069f575082155b156106bd576040516308429e4760e31b815260040160405180910390fd5b6000546106d2906001600160a01b0316610e91565b91506000826001600160a01b0316878787876040516024016106f79493929190611501565b60408051601f198184030181529181526020820180516001600160e01b031663266c45bb60e11b1790525161072c9190611533565b6000604051808303816000865af19150503d8060008114610769576040519150601f19603f3d011682016040523d82523d6000602084013e61076e565b606091505b505090508061079057604051630337323560e31b815260040160405180910390fd5b6001546107a5906001600160a01b0316610e91565b6002546040516301434e2360e21b81526001600160a01b03868116600480840191909152928116602483015233604483015291546064820152600554608482015260065460a482015260075460c482015260085462ffffff80821660e4840152601882901c1661010483015260301c82166101248201526009548216610144820152600a548216610164820152600b54821661018482015291935083169063050d388c906101a401600060405180830381600087803b15801561086757600080fd5b505af115801561087b573d6000803e3d6000fd5b50506040516001600160a01b038581166024830152600093508616915060440160408051601f198184030181529181526020820180516001600160e01b03166305a950c560e21b179052516108d09190611533565b6000604051808303816000865af19150503d806000811461090d576040519150601f19603f3d011682016040523d82523d6000602084013e610912565b606091505b505090508061093457604051632907f5df60e11b815260040160405180910390fd5b6001600160a01b038085166000818152600c6020908152604080832080549589166001600160a01b031996871681179091558352600d9091529020805490921617905561097e3390565b6001600160a01b0316846001600160a01b0316846001600160a01b03167f3ef4c1f0529a2ee6b2e04f4f81ace41250f87a6d1ecc603d9168c55780c890fb8b8b8b8b6040516109d09493929190611501565b60405180910390a4600354341115610a595760035460009033906109f49034611562565b604051600081818185875af1925050503d8060008114610a30576040519150601f19603f3d011682016040523d82523d6000602084013e610a35565b606091505b5050905080610a5757604051633c31275160e21b815260040160405180910390fd5b505b5050610a8460017f9b779b17422d0df92223018b32b4d1fa46e071723d6817e2486d003becc55f0055565b94509492505050565b610a95610e15565b610a9f6000610eca565b565b3380610aab610d67565b6001600160a01b031614610add5760405163118cdaa760e01b81526001600160a01b038216600482015260240161068b565b610ae681610eca565b50565b6000807f9016d09d72d40fdae2fd8ceac6b6234c7706214fd39c1cd1e609a0528c1993005b546001600160a01b031692915050565b7ff0c57e16840df040f15088dc2f81fe391c3923bec73e23a9662efc9c229c6a008054600160401b810460ff16159067ffffffffffffffff16600081158015610b645750825b905060008267ffffffffffffffff166001148015610b815750303b155b905081158015610b8f575080155b15610bad5760405163f92ee8a960e01b815260040160405180910390fd5b845467ffffffffffffffff191660011785558315610bd757845460ff60401b1916600160401b1785555b6001600160a01b038a16610bfe5760405163d92e233d60e01b815260040160405180910390fd5b6001600160a01b038916610c255760405163d92e233d60e01b815260040160405180910390fd5b6001600160a01b038816610c4c5760405163d92e233d60e01b815260040160405180910390fd5b6001600160a01b038716610c735760405163d92e233d60e01b815260040160405180910390fd5b610c7c8a610f06565b610c84610f17565b600080546001600160a01b03808c166001600160a01b031992831617909255600180548b841690831617905560028054928a1692909116919091179055856004610cce828261136b565b5060649050610cdf87356014611482565b610ce99190611499565b600581905560065411610d0f576040516308429e4760e31b815260040160405180910390fd5b60038b90558315610d5a57845460ff60401b19168555604051600181527fc7f505b2f371ae2175ee4913f4499e1f2633a7b5936321eed1cdaeb6115181d29060200160405180910390a15b5050505050505050505050565b6000807f237e158222e3e6968b72b9db0d8043aacf074ad9f650f0d1606b4d82ee432c00610b0e565b610d98610e15565b7f237e158222e3e6968b72b9db0d8043aacf074ad9f650f0d1606b4d82ee432c0080546001600160a01b0319166001600160a01b0383169081178255610ddc610ae9565b6001600160a01b03167f38d16b8cac22d99fc7c124b9cd0de2d3fa1faef420bfe791d8c362d765e2270060405160405180910390a35050565b33610e1e610ae9565b6001600160a01b031614610a9f5760405163118cdaa760e01b815233600482015260240161068b565b7f9b779b17422d0df92223018b32b4d1fa46e071723d6817e2486d003becc55f00805460011901610e8b57604051633ee5aeb560e01b815260040160405180910390fd5b60029055565b6000610e9e826000610f27565b92915050565b60017f9b779b17422d0df92223018b32b4d1fa46e071723d6817e2486d003becc55f0055565b7f237e158222e3e6968b72b9db0d8043aacf074ad9f650f0d1606b4d82ee432c0080546001600160a01b0319168155610f0282610fbd565b5050565b610f0e61102e565b610ae681611077565b610f1f61102e565b610a9f6110a9565b600081471015610f535760405163cf47918160e01b81524760048201526024810183905260440161068b565b763d602d80600a3d3981f3363d3d373d3d3d363d730000008360601b60e81c176000526e5af43d82803e903d91602b57fd5bf38360781b176020526037600983f090506001600160a01b038116610e9e5760405163b06ebf3d60e01b815260040160405180910390fd5b7f9016d09d72d40fdae2fd8ceac6b6234c7706214fd39c1cd1e609a0528c19930080546001600160a01b031981166001600160a01b03848116918217845560405192169182907f8be0079c531659141344cd1fd0a4f28419497f9722a3daafe3b4186f6b6457e090600090a3505050565b7ff0c57e16840df040f15088dc2f81fe391c3923bec73e23a9662efc9c229c6a0054600160401b900460ff16610a9f57604051631afcd79f60e31b815260040160405180910390fd5b61107f61102e565b6001600160a01b038116610add57604051631e4fbdf760e01b81526000600482015260240161068b565b610ea461102e565b6001600160a01b0381168114610ae657600080fd5b6000602082840312156110d857600080fd5b81356110e3816110b1565b9392505050565b600061014082840312156110fd57600080fd5b50919050565b6000610140828403121561111657600080fd5b6110e383836110ea565b60006020828403121561113257600080fd5b5035919050565b60008083601f84011261114b57600080fd5b50813567ffffffffffffffff81111561116357600080fd5b60208301915083602082850101111561117b57600080fd5b9250929050565b6000806000806040858703121561119857600080fd5b843567ffffffffffffffff808211156111b057600080fd5b6111bc88838901611139565b909650945060208701359150808211156111d557600080fd5b506111e287828801611139565b95989497509550505050565b60006101408201905082518252602083015160208301526040830151604083015260608301516060830152608083015161122f608084018262ffffff169052565b5060a083015161124660a084018262ffffff169052565b5060c083015161126160c08401826001600160a01b03169052565b5060e083015161127c60e08401826001600160a01b03169052565b50610100838101516001600160a01b03908116918401919091526101209384015116929091019190915290565b6000806000806000806101e087890312156112c357600080fd5b8635955060208701356112d5816110b1565b945060408701356112e5816110b1565b935060608701356112f5816110b1565b92506080870135611305816110b1565b91506113148860a089016110ea565b90509295509295509295565b62ffffff81168114610ae657600080fd5b60008135610e9e81611320565b60008135610e9e816110b1565b80546001600160a01b0319166001600160a01b0392909216919091179055565b81358155602082013560018201556040820135600282015560608201356003820155600481016113b56113a060808501611331565b825462ffffff191662ffffff91909116178255565b6113e26113c460a08501611331565b825465ffffff000000191660189190911b65ffffff00000016178255565b6114216113f160c0850161133e565b8280546601000000000000600160d01b03191660309290921b6601000000000000600160d01b0316919091179055565b5061143a61143160e0840161133e565b6005830161134b565b61145361144a610100840161133e565b6006830161134b565b610f02611463610120840161133e565b6007830161134b565b634e487b7160e01b600052601160045260246000fd5b8082028115828204841417610e9e57610e9e61146c565b6000826114b657634e487b7160e01b600052601260045260246000fd5b500490565b6000602082840312156114cd57600080fd5b81356110e381611320565b81835281816020850137506000828201602090810191909152601f909101601f19169091010190565b6040815260006115156040830186886114d8565b82810360208401526115288185876114d8565b979650505050505050565b6000825160005b81811015611554576020818601810151858301520161153a565b506000920191825250919050565b81810381811115610e9e57610e9e61146c56fea2646970667358221220e73a5ae4186fea1054b4a8ab1b896b6ece62f2a7379b8f18016d9ee014e6521164736f6c63430008140033",
  "devdoc": {
    "details": "Implements minimal proxy pattern for gas-efficient deployment",
    "errors": {
      "FailedDeployment()": [
        {
          "details": "The deployment failed."
        }
      ],
      "InsufficientBalance(uint256,uint256)": [
        {
          "details": "The ETH balance of the account is not enough to perform the operation."
        }
      ],
      "InsufficientDeploymentFee(uint256,uint256)": [
        {
          "params": {
            "provided": "The amount of ETH provided",
            "required": "The required deployment fee"
          }
        }
      ],
      "InvalidInitialization()": [
        {
          "details": "The contract is already initialized."
        }
      ],
      "NotInitializing()": [
        {
          "details": "The contract is not initializing."
        }
      ],
      "OwnableInvalidOwner(address)": [
        {
          "details": "The owner is not a valid owner account. (eg. `address(0)`)"
        }
      ],
      "OwnableUnauthorizedAccount(address)": [
        {
          "details": "The caller account is not authorized to perform an operation."
        }
      ],
      "ReentrancyGuardReentrantCall()": [
        {
          "details": "Unauthorized reentrant call."
        }
      ]
    },
    "events": {
      "BondingCurveSystemDeployed(address,address,address,string,string)": {
        "params": {
          "bondingCurveAddress": "The address of the deployed bonding curve",
          "name": "Token name",
          "owner": "The address that will own both contracts",
          "symbol": "Token symbol",
          "tokenAddress": "The address of the deployed token"
        }
      },
      "DeploymentFeeUpdated(uint256,uint256)": {
        "params": {
          "newFee": "New fee amount",
          "oldFee": "Previous fee amount"
        }
      },
      "FeesWithdrawn(address,uint256)": {
        "params": {
          "amount": "Amount withdrawn",
          "recipient": "Address receiving the fees"
        }
      },
      "Initialized(uint64)": {
        "details": "Triggered when the contract has been initialized or reinitialized."
      }
    },
    "kind": "dev",
    "methods": {
      "acceptOwnership()": {
        "details": "The new owner accepts the ownership transfer."
      },
      "constructor": {
        "details": "Constructor is disabled since this contract is meant to be used behind a proxy"
      },
      "deployBondingCurveSystem(string,string)": {
        "params": {
          "name": "Token name",
          "symbol": "Token symbol"
        },
        "returns": {
          "bondingCurveAddress": "Address of the deployed bonding curve",
          "tokenAddress": "Address of the deployed token contract"
        }
      },
      "getBondingCurveForToken(address)": {
        "params": {
          "token": "The token address to query"
        },
        "returns": {
          "_0": "The associated bonding curve address"
        }
      },
      "getBondingCurveImplementation()": {
        "returns": {
          "_0": "Address of the bonding curve implementation contract"
        }
      },
      "getDeploymentFee()": {
        "returns": {
          "_0": "Current fee amount in wei"
        }
      },
      "getLockContract()": {
        "returns": {
          "_0": "Address of the LP NFT lock contract"
        }
      },
      "getTokenForBondingCurve(address)": {
        "params": {
          "bondingCurve": "The bonding curve address to query"
        },
        "returns": {
          "_0": "The associated token address"
        }
      },
      "getTokenImplementation()": {
        "returns": {
          "_0": "Address of the token implementation contract"
        }
      },
      "initialize(uint256,address,address,address,address,(uint256,uint256,uint256,uint256,uint24,uint24,address,address,address,address))": {
        "params": {
          "bondingCurveImpl": "Address of the bonding curve implementation",
          "lockContract": "Address of the LP NFT lock contract",
          "owner": "Address that will own the factory",
          "tokenImpl": "Address of the token implementation"
        }
      },
      "owner()": {
        "details": "Returns the address of the current owner."
      },
      "pendingOwner()": {
        "details": "Returns the address of the pending owner."
      },
      "renounceOwnership()": {
        "details": "Leaves the contract without owner. It will not be possible to call `onlyOwner` functions. Can only be called by the current owner. NOTE: Renouncing ownership will leave the contract without an owner, thereby disabling any functionality that is only available to the owner."
      },
      "transferOwnership(address)": {
        "details": "Starts the ownership transfer of the contract to a new account. Replaces the pending transfer if there is one. Can only be called by the current owner. Setting `newOwner` to the zero address is allowed; this can be used to cancel an initiated ownership transfer."
      },
      "updateDeploymentFee(uint256)": {
        "params": {
          "newFee": "New fee amount in wei"
        }
      },
      "withdrawFees(address)": {
        "params": {
          "recipient": "Address to receive the fees"
        }
      }
    },
    "title": "Factory",
    "version": 1
  },
  "userdoc": {
    "errors": {
      "InitializationFailed()": [
        {
          "notice": "Thrown when initialization fails"
        }
      ],
      "InsufficientDeploymentFee(uint256,uint256)": [
        {
          "notice": "Thrown when deployment fee is insufficient"
        }
      ],
      "InvalidDeploymentParameters()": [
        {
          "notice": "Thrown when deployment parameters are invalid"
        }
      ],
      "RefundFailed()": [
        {
          "notice": "Thrown when deployment extra fees refund fails"
        }
      ],
      "TokenMintingFailed()": [
        {
          "notice": "Thrown when deployment minting fails"
        }
      ],
      "Unauthorized()": [
        {
          "notice": "Thrown when caller is not authorized"
        }
      ],
      "ZeroAddress()": [
        {
          "notice": "Thrown when an address parameter is zero"
        }
      ]
    },
    "events": {
      "BondingCurveSystemDeployed(address,address,address,string,string)": {
        "notice": "Emitted when a new bonding curve system is deployed"
      },
      "DeploymentFeeUpdated(uint256,uint256)": {
        "notice": "Emitted when deployment fee is updated"
      },
      "FeesWithdrawn(address,uint256)": {
        "notice": "Emitted when fees are withdrawn"
      }
    },
    "kind": "user",
    "methods": {
      "deployBondingCurveSystem(string,string)": {
        "notice": "Deploy a complete bonding curve system (token + bonding curve)"
      },
      "getBondingCurveForToken(address)": {
        "notice": "Get the bonding curve address associated with a token"
      },
      "getBondingCurveImplementation()": {
        "notice": "Get the bonding curve implementation address"
      },
      "getDeploymentFee()": {
        "notice": "Get the current deployment fee"
      },
      "getLockContract()": {
        "notice": "Get the LP NFT lock contract address"
      },
      "getTokenForBondingCurve(address)": {
        "notice": "Get the token address associated with a bonding curve"
      },
      "getTokenImplementation()": {
        "notice": "Get the token implementation address"
      },
      "initialize(uint256,address,address,address,address,(uint256,uint256,uint256,uint256,uint24,uint24,address,address,address,address))": {
        "notice": "Initialize the factory contract"
      },
      "updateDeploymentFee(uint256)": {
        "notice": "Update the deployment fee"
      },
      "withdrawFees(address)": {
        "notice": "Withdraw collected fees"
      }
    },
    "notice": "Factory contract for deploying bonding curve systems",
    "version": 1
  },
  "storageLayout": {
    "storage": [
      {
        "astId": 9337,
        "contract": "contracts/Factory.sol:Factory",
        "label": "tokenImplementation",
        "offset": 0,
        "slot": "0",
        "type": "t_address"
      },
      {
        "astId": 9339,
        "contract": "contracts/Factory.sol:Factory",
        "label": "bondingCurveImplementation",
        "offset": 0,
        "slot": "1",
        "type": "t_address"
      },
      {
        "astId": 9341,
        "contract": "contracts/Factory.sol:Factory",
        "label": "lockContract",
        "offset": 0,
        "slot": "2",
        "type": "t_address"
      },
      {
        "astId": 9343,
        "contract": "contracts/Factory.sol:Factory",
        "label": "deploymentFee",
        "offset": 0,
        "slot": "3",
        "type": "t_uint256"
      },
      {
        "astId": 9346,
        "contract": "contracts/Factory.sol:Factory",
        "label": "settings",
        "offset": 0,
        "slot": "4",
        "type": "t_struct(BondingCurveSettings)11201_storage"
      },
      {
        "astId": 9350,
        "contract": "contracts/Factory.sol:Factory",
        "label": "tokenToBondingCurve",
        "offset": 0,
        "slot": "12",
        "type": "t_mapping(t_address,t_address)"
      },
      {
        "astId": 9354,
        "contract": "contracts/Factory.sol:Factory",
        "label": "bondingCurveToToken",
        "offset": 0,
        "slot": "13",
        "type": "t_mapping(t_address,t_address)"
      }
    ],
    "types": {
      "t_address": {
        "encoding": "inplace",
        "label": "address",
        "numberOfBytes": "20"
      },
      "t_mapping(t_address,t_address)": {
        "encoding": "mapping",
        "key": "t_address",
        "label": "mapping(address => address)",
        "numberOfBytes": "32",
        "value": "t_address"
      },
      "t_struct(BondingCurveSettings)11201_storage": {
        "encoding": "inplace",
        "label": "struct IFactory.BondingCurveSettings",
        "members": [
          {
            "astId": 11182,
            "contract": "contracts/Factory.sol:Factory",
            "label": "virtualEth",
            "offset": 0,
            "slot": "0",
            "type": "t_uint256"
          },
          {
            "astId": 11184,
            "contract": "contracts/Factory.sol:Factory",
            "label": "preBondingTarget",
            "offset": 0,
            "slot": "1",
            "type": "t_uint256"
          },
          {
            "astId": 11186,
            "contract": "contracts/Factory.sol:Factory",
            "label": "bondingTarget",
            "offset": 0,
            "slot": "2",
            "type": "t_uint256"
          },
          {
            "astId": 11188,
            "contract": "contracts/Factory.sol:Factory",
            "label": "minContribution",
            "offset": 0,
            "slot": "3",
            "type": "t_uint256"
          },
          {
            "astId": 11190,
            "contract": "contracts/Factory.sol:Factory",
            "label": "poolFee",
            "offset": 0,
            "slot": "4",
            "type": "t_uint24"
          },
          {
            "astId": 11192,
            "contract": "contracts/Factory.sol:Factory",
            "label": "sellFee",
            "offset": 3,
            "slot": "4",
            "type": "t_uint24"
          },
          {
            "astId": 11194,
            "contract": "contracts/Factory.sol:Factory",
            "label": "uniswapV3Factory",
            "offset": 6,
            "slot": "4",
            "type": "t_address"
          },
          {
            "astId": 11196,
            "contract": "contracts/Factory.sol:Factory",
            "label": "positionManager",
            "offset": 0,
            "slot": "5",
            "type": "t_address"
          },
          {
            "astId": 11198,
            "contract": "contracts/Factory.sol:Factory",
            "label": "weth",
            "offset": 0,
            "slot": "6",
            "type": "t_address"
          },
          {
            "astId": 11200,
            "contract": "contracts/Factory.sol:Factory",
            "label": "feeTo",
            "offset": 0,
            "slot": "7",
            "type": "t_address"
          }
        ],
        "numberOfBytes": "256"
      },
      "t_uint24": {
        "encoding": "inplace",
        "label": "uint24",
        "numberOfBytes": "3"
      },
      "t_uint256": {
        "encoding": "inplace",
        "label": "uint256",
        "numberOfBytes": "32"
      }
    }
  }
}