{
  "address": "0x394F0Fc8029898FB054ffcdB667a2C530Da671dD",
  "abi": [
    {
      "inputs": [
        {
          "internalType": "address",
          "name": "_positionManager",
          "type": "address"
        }
      ],
      "stateMutability": "nonpayable",
      "type": "constructor"
    },
    {
      "inputs": [],
      "name": "InvalidInitialization",
      "type": "error"
    },
    {
      "inputs": [],
      "name": "LockPeriodNotEnded",
      "type": "error"
    },
    {
      "inputs": [],
      "name": "NFTAlreadyLocked",
      "type": "error"
    },
    {
      "inputs": [],
      "name": "NFTNotLocked",
      "type": "error"
    },
    {
      "inputs": [],
      "name": "NotInitializing",
      "type": "error"
    },
    {
      "inputs": [],
      "name": "NotNFTOwner",
      "type": "error"
    },
    {
      "inputs": [
        {
          "internalType": "address",
          "name": "owner",
          "type": "address"
        }
      ],
      "name": "OwnableInvalidOwner",
      "type": "error"
    },
    {
      "inputs": [
        {
          "internalType": "address",
          "name": "account",
          "type": "address"
        }
      ],
      "name": "OwnableUnauthorizedAccount",
      "type": "error"
    },
    {
      "inputs": [],
      "name": "ReentrancyGuardReentrantCall",
      "type": "error"
    },
    {
      "anonymous": false,
      "inputs": [
        {
          "indexed": true,
          "internalType": "address",
          "name": "owner",
          "type": "address"
        },
        {
          "indexed": true,
          "internalType": "uint256",
          "name": "tokenId",
          "type": "uint256"
        },
        {
          "indexed": false,
          "internalType": "uint256",
          "name": "amount0",
          "type": "uint256"
        },
        {
          "indexed": false,
          "internalType": "uint256",
          "name": "amount1",
          "type": "uint256"
        }
      ],
      "name": "FeesClaimed",
      "type": "event"
    },
    {
      "anonymous": false,
      "inputs": [
        {
          "indexed": false,
          "internalType": "uint64",
          "name": "version",
          "type": "uint64"
        }
      ],
      "name": "Initialized",
      "type": "event"
    },
    {
      "anonymous": false,
      "inputs": [
        {
          "indexed": true,
          "internalType": "address",
          "name": "owner",
          "type": "address"
        },
        {
          "indexed": true,
          "internalType": "uint256",
          "name": "tokenId",
          "type": "uint256"
        }
      ],
      "name": "NFTLocked",
      "type": "event"
    },
    {
      "anonymous": false,
      "inputs": [
        {
          "indexed": true,
          "internalType": "address",
          "name": "owner",
          "type": "address"
        },
        {
          "indexed": true,
          "internalType": "uint256",
          "name": "tokenId",
          "type": "uint256"
        },
        {
          "indexed": false,
          "internalType": "address",
          "name": "to",
          "type": "address"
        }
      ],
      "name": "NFTUnlocked",
      "type": "event"
    },
    {
      "anonymous": false,
      "inputs": [
        {
          "indexed": true,
          "internalType": "address",
          "name": "previousOwner",
          "type": "address"
        },
        {
          "indexed": true,
          "internalType": "address",
          "name": "newOwner",
          "type": "address"
        }
      ],
      "name": "OwnershipTransferStarted",
      "type": "event"
    },
    {
      "anonymous": false,
      "inputs": [
        {
          "indexed": true,
          "internalType": "address",
          "name": "previousOwner",
          "type": "address"
        },
        {
          "indexed": true,
          "internalType": "address",
          "name": "newOwner",
          "type": "address"
        }
      ],
      "name": "OwnershipTransferred",
      "type": "event"
    },
    {
      "inputs": [],
      "name": "LOCK_DURATION",
      "outputs": [
        {
          "internalType": "uint256",
          "name": "",
          "type": "uint256"
        }
      ],
      "stateMutability": "view",
      "type": "function"
    },
    {
      "inputs": [],
      "name": "UNISWAP_V3_POSITION_MANAGER",
      "outputs": [
        {
          "internalType": "address",
          "name": "",
          "type": "address"
        }
      ],
      "stateMutability": "view",
      "type": "function"
    },
    {
      "inputs": [],
      "name": "acceptOwnership",
      "outputs": [],
      "stateMutability": "nonpayable",
      "type": "function"
    },
    {
      "inputs": [
        {
          "internalType": "uint256",
          "name": "tokenId",
          "type": "uint256"
        }
      ],
      "name": "checkAvailableFees",
      "outputs": [
        {
          "internalType": "uint256",
          "name": "amount0",
          "type": "uint256"
        },
        {
          "internalType": "uint256",
          "name": "amount1",
          "type": "uint256"
        }
      ],
      "stateMutability": "view",
      "type": "function"
    },
    {
      "inputs": [
        {
          "internalType": "uint256",
          "name": "tokenId",
          "type": "uint256"
        }
      ],
      "name": "claimFees",
      "outputs": [
        {
          "internalType": "uint256",
          "name": "amount0",
          "type": "uint256"
        },
        {
          "internalType": "uint256",
          "name": "amount1",
          "type": "uint256"
        }
      ],
      "stateMutability": "nonpayable",
      "type": "function"
    },
    {
      "inputs": [
        {
          "internalType": "address",
          "name": "owner",
          "type": "address"
        }
      ],
      "name": "getNFTsByOwner",
      "outputs": [
        {
          "internalType": "uint256[]",
          "name": "",
          "type": "uint256[]"
        }
      ],
      "stateMutability": "view",
      "type": "function"
    },
    {
      "inputs": [
        {
          "internalType": "uint256",
          "name": "tokenId",
          "type": "uint256"
        }
      ],
      "name": "getRemainingLockTime",
      "outputs": [
        {
          "internalType": "uint256",
          "name": "",
          "type": "uint256"
        }
      ],
      "stateMutability": "view",
      "type": "function"
    },
    {
      "inputs": [],
      "name": "initialize",
      "outputs": [],
      "stateMutability": "nonpayable",
      "type": "function"
    },
    {
      "inputs": [
        {
          "internalType": "uint256",
          "name": "tokenId",
          "type": "uint256"
        }
      ],
      "name": "isNFTLocked",
      "outputs": [
        {
          "internalType": "bool",
          "name": "",
          "type": "bool"
        }
      ],
      "stateMutability": "view",
      "type": "function"
    },
    {
      "inputs": [
        {
          "internalType": "uint256",
          "name": "tokenId",
          "type": "uint256"
        },
        {
          "internalType": "address",
          "name": "owner",
          "type": "address"
        }
      ],
      "name": "lockNFT",
      "outputs": [],
      "stateMutability": "nonpayable",
      "type": "function"
    },
    {
      "inputs": [
        {
          "internalType": "uint256",
          "name": "",
          "type": "uint256"
        }
      ],
      "name": "lockedNFTs",
      "outputs": [
        {
          "internalType": "address",
          "name": "owner",
          "type": "address"
        },
        {
          "internalType": "uint256",
          "name": "tokenId",
          "type": "uint256"
        },
        {
          "internalType": "bool",
          "name": "isLocked",
          "type": "bool"
        },
        {
          "internalType": "uint256",
          "name": "lockedAt",
          "type": "uint256"
        }
      ],
      "stateMutability": "view",
      "type": "function"
    },
    {
      "inputs": [
        {
          "internalType": "address",
          "name": "",
          "type": "address"
        },
        {
          "internalType": "address",
          "name": "",
          "type": "address"
        },
        {
          "internalType": "uint256",
          "name": "",
          "type": "uint256"
        },
        {
          "internalType": "bytes",
          "name": "",
          "type": "bytes"
        }
      ],
      "name": "onERC721Received",
      "outputs": [
        {
          "internalType": "bytes4",
          "name": "",
          "type": "bytes4"
        }
      ],
      "stateMutability": "pure",
      "type": "function"
    },
    {
      "inputs": [],
      "name": "owner",
      "outputs": [
        {
          "internalType": "address",
          "name": "",
          "type": "address"
        }
      ],
      "stateMutability": "view",
      "type": "function"
    },
    {
      "inputs": [
        {
          "internalType": "address",
          "name": "",
          "type": "address"
        },
        {
          "internalType": "uint256",
          "name": "",
          "type": "uint256"
        }
      ],
      "name": "ownerNFTs",
      "outputs": [
        {
          "internalType": "uint256",
          "name": "",
          "type": "uint256"
        }
      ],
      "stateMutability": "view",
      "type": "function"
    },
    {
      "inputs": [],
      "name": "pendingOwner",
      "outputs": [
        {
          "internalType": "address",
          "name": "",
          "type": "address"
        }
      ],
      "stateMutability": "view",
      "type": "function"
    },
    {
      "inputs": [],
      "name": "positionManager",
      "outputs": [
        {
          "internalType": "contract INonfungiblePositionManager",
          "name": "",
          "type": "address"
        }
      ],
      "stateMutability": "view",
      "type": "function"
    },
    {
      "inputs": [],
      "name": "renounceOwnership",
      "outputs": [],
      "stateMutability": "nonpayable",
      "type": "function"
    },
    {
      "inputs": [
        {
          "internalType": "address",
          "name": "newOwner",
          "type": "address"
        }
      ],
      "name": "transferOwnership",
      "outputs": [],
      "stateMutability": "nonpayable",
      "type": "function"
    },
    {
      "inputs": [
        {
          "internalType": "uint256",
          "name": "tokenId",
          "type": "uint256"
        },
        {
          "internalType": "address",
          "name": "to",
          "type": "address"
        }
      ],
      "name": "unlockNFT",
      "outputs": [],
      "stateMutability": "nonpayable",
      "type": "function"
    }
  ],
  "transactionHash": "0x27cca42678af2d9955ba009f55574b83c043958a4c63c6afc02c922c436b3e5e",
  "args": [
    "0xC36442b4a4522E871399CD717aBDD847Ab11FE88"
  ],
  "numDeployments": 1,
  "solcInputHash": "755db2098558d55cecbeb68d819ee939",
  "bytecode": "0x60a060405234801561001057600080fd5b5060405161141d38038061141d83398101604081905261002f916100fa565b610037610048565b6001600160a01b031660805261012a565b7ff0c57e16840df040f15088dc2f81fe391c3923bec73e23a9662efc9c229c6a00805468010000000000000000900460ff16156100985760405163f92ee8a960e01b815260040160405180910390fd5b80546001600160401b03908116146100f75780546001600160401b0319166001600160401b0390811782556040519081527fc7f505b2f371ae2175ee4913f4499e1f2633a7b5936321eed1cdaeb6115181d29060200160405180910390a15b50565b60006020828403121561010c57600080fd5b81516001600160a01b038116811461012357600080fd5b9392505050565b6080516112d161014c600039600081816102ed01526107a701526112d16000f3fe608060405234801561001057600080fd5b50600436106101215760003560e01c806379ba5097116100ad57806394cbab9d1161007157806394cbab9d146102e8578063ac68a7481461030f578063e2afe8b314610322578063e30c397814610342578063f2fde38b1461034a57600080fd5b806379ba5097146102485780638129fc1c146102505780638a26f447146102585780638da5cb5b1461026b578063945633c11461027357600080fd5b8063485d3834116100f4578063485d3834146101e25780636be9479b146101ed5780636d51590014610200578063715018a614610215578063791b98bc1461021d57600080fd5b8063150b7a02146101265780631a5a3b861461016357806321806bf91461019957806324f50dd2146101ba575b600080fd5b610145610134366004610f27565b630a85bd0160e11b95945050505050565b6040516001600160e01b031990911681526020015b60405180910390f35b610189610171366004610fc6565b60009081526001602052604090206002015460ff1690565b604051901515815260200161015a565b6101ac6101a7366004610fc6565b61035d565b60405190815260200161015a565b6101cd6101c8366004610fc6565b6103bb565b6040805192835260208301919091520161015a565b6101ac6312cc030081565b6101ac6101fb366004610fdf565b6104c4565b61021361020e36600461100b565b6104f5565b005b61021361066c565b600054610230906001600160a01b031681565b6040516001600160a01b03909116815260200161015a565b610213610680565b6102136106cd565b61021361026636600461100b565b61081f565b6102306109a4565b6102b8610281366004610fc6565b600160208190526000918252604090912080549181015460028201546003909201546001600160a01b0390931692909160ff169084565b604080516001600160a01b039095168552602085019390935290151591830191909152606082015260800161015a565b6102307f000000000000000000000000000000000000000000000000000000000000000081565b6101cd61031d366004610fc6565b6109d9565b61033561033036600461103b565b610b59565b60405161015a919061105f565b610230610bc5565b61021361035836600461103b565b610bee565b6000818152600160205260408120600281015460ff166103805750600092915050565b60006312cc0300826003015461039691906110b9565b90508042106103a9575060009392505050565b6103b342826110d2565b949350505050565b600081815260016020526040812060020154819060ff166103ef57604051630c0144e560e11b815260040160405180910390fd5b6000805460405163133f757160e31b81526004810186905282918291829182916001600160a01b03909116906399fbab889060240161018060405180830381865afa158015610442573d6000803e3d6000fd5b505050506040513d601f19601f820116820180604052508101906104669190611131565b9b509b509b509b509b5050505050505050816001600160801b03169650806001600160801b031695506000856001600160801b031611156104ba576104ab84886110b9565b96506104b783876110b9565b95505b5050505050915091565b600260205281600052604060002081815481106104e057600080fd5b90600052602060002001600091509150505481565b6104fd610c73565b6000828152600160205260409020600281015460ff1661053057604051630c0144e560e11b815260040160405180910390fd5b80546001600160a01b0316331461055a57604051631022318760e21b815260040160405180910390fd5b6312cc0300816003015461056e91906110b9565b42101561058e576040516387c0f2d560e01b815260040160405180910390fd5b600054604051632142170760e11b81523060048201526001600160a01b03848116602483015260448201869052909116906342842e0e90606401600060405180830381600087803b1580156105e257600080fd5b505af11580156105f6573d6000803e3d6000fd5b5050505060028101805460ff191690556106103384610cab565b604080516001600160a01b03841681529051849133917fc82027111cdc25a13287e45aaad5b7c1b91e77bb72aa2a8cc6eb098f298224879181900360200190a350610668600160008051602061127c83398151915255565b5050565b610674610d93565b61067e6000610dc5565b565b338061068a610bc5565b6001600160a01b0316146106c15760405163118cdaa760e01b81526001600160a01b03821660048201526024015b60405180910390fd5b6106ca81610dc5565b50565b7ff0c57e16840df040f15088dc2f81fe391c3923bec73e23a9662efc9c229c6a008054600160401b810460ff16159067ffffffffffffffff166000811580156107135750825b905060008267ffffffffffffffff1660011480156107305750303b155b90508115801561073e575080155b1561075c5760405163f92ee8a960e01b815260040160405180910390fd5b845467ffffffffffffffff19166001178555831561078657845460ff60401b1916600160401b1785555b61078f33610dfd565b610797610e0e565b600080546001600160a01b0319167f00000000000000000000000000000000000000000000000000000000000000006001600160a01b0316179055831561081857845460ff60401b19168555604051600181527fc7f505b2f371ae2175ee4913f4499e1f2633a7b5936321eed1cdaeb6115181d29060200160405180910390a15b5050505050565b610827610c73565b60008281526001602052604090206002015460ff161561085a57604051630fb1583f60e21b815260040160405180910390fd5b6000546001600160a01b03166342842e0e336040516001600160e01b031960e084901b1681526001600160a01b03909116600482015230602482015260448101859052606401600060405180830381600087803b1580156108ba57600080fd5b505af11580156108ce573d6000803e3d6000fd5b5050604080516080810182526001600160a01b0385811680835260208084018981526001858701818152426060880190815260008d8152838652898120985189546001600160a01b0319169816979097178855925187830155516002808801805460ff19169215159290921790915591516003909601959095558284528152848320805494850181558352822090920187905591518694509092507fa9262575db5f22d8b54192efce38602ac59d04bcdbcba1962fc351473de561469190a3610668600160008051602061127c83398151915255565b6000807f9016d09d72d40fdae2fd8ceac6b6234c7706214fd39c1cd1e609a0528c1993005b546001600160a01b031692915050565b6000806109e4610c73565b6000838152600160205260409020600281015460ff16610a1757604051630c0144e560e11b815260040160405180910390fd5b80546001600160a01b03163314610a4157604051631022318760e21b815260040160405180910390fd5b600080546040805160808101825287815233602082019081526001600160801b0382840181815260608401828152855163fc6f786560e01b81529451600486015292516001600160a01b0390811660248601529051821660448501529151166064830152825193169363fc6f7865936084808401949391929183900301908290875af1158015610ad5573d6000803e3d6000fd5b505050506040513d601f19601f82011682018060405250810190610af99190611212565b6040805183815260208101839052929550909350859133917fd49b328847f240dd41d9f8a97b5334cb8d06f55e51ce78bacd364d5c62136d77910160405180910390a350610b54600160008051602061127c83398151915255565b915091565b6001600160a01b038116600090815260026020908152604091829020805483518184028101840190945280845260609392830182828015610bb957602002820191906000526020600020905b815481526020019060010190808311610ba5575b50505050509050919050565b6000807f237e158222e3e6968b72b9db0d8043aacf074ad9f650f0d1606b4d82ee432c006109c9565b610bf6610d93565b7f237e158222e3e6968b72b9db0d8043aacf074ad9f650f0d1606b4d82ee432c0080546001600160a01b0319166001600160a01b0383169081178255610c3a6109a4565b6001600160a01b03167f38d16b8cac22d99fc7c124b9cd0de2d3fa1faef420bfe791d8c362d765e2270060405160405180910390a35050565b60008051602061127c833981519152805460011901610ca557604051633ee5aeb560e01b815260040160405180910390fd5b60029055565b6001600160a01b0382166000908152600260205260408120905b8154811015610d795782828281548110610ce157610ce1611236565b906000526020600020015403610d675781548290610d01906001906110d2565b81548110610d1157610d11611236565b9060005260206000200154828281548110610d2e57610d2e611236565b906000526020600020018190555081805480610d4c57610d4c61124c565b60019003818190600052602060002001600090559055610d79565b80610d7181611262565b915050610cc5565b50505050565b600160008051602061127c83398151915255565b33610d9c6109a4565b6001600160a01b03161461067e5760405163118cdaa760e01b81523360048201526024016106b8565b7f237e158222e3e6968b72b9db0d8043aacf074ad9f650f0d1606b4d82ee432c0080546001600160a01b031916815561066882610e1e565b610e05610e8f565b6106ca81610ed8565b610e16610e8f565b61067e610f0a565b7f9016d09d72d40fdae2fd8ceac6b6234c7706214fd39c1cd1e609a0528c19930080546001600160a01b031981166001600160a01b03848116918217845560405192169182907f8be0079c531659141344cd1fd0a4f28419497f9722a3daafe3b4186f6b6457e090600090a3505050565b7ff0c57e16840df040f15088dc2f81fe391c3923bec73e23a9662efc9c229c6a0054600160401b900460ff1661067e57604051631afcd79f60e31b815260040160405180910390fd5b610ee0610e8f565b6001600160a01b0381166106c157604051631e4fbdf760e01b8152600060048201526024016106b8565b610d7f610e8f565b6001600160a01b03811681146106ca57600080fd5b600080600080600060808688031215610f3f57600080fd5b8535610f4a81610f12565b94506020860135610f5a81610f12565b935060408601359250606086013567ffffffffffffffff80821115610f7e57600080fd5b818801915088601f830112610f9257600080fd5b813581811115610fa157600080fd5b896020828501011115610fb357600080fd5b9699959850939650602001949392505050565b600060208284031215610fd857600080fd5b5035919050565b60008060408385031215610ff257600080fd5b8235610ffd81610f12565b946020939093013593505050565b6000806040838503121561101e57600080fd5b82359150602083013561103081610f12565b809150509250929050565b60006020828403121561104d57600080fd5b813561105881610f12565b9392505050565b6020808252825182820181905260009190848201906040850190845b818110156110975783518352928401929184019160010161107b565b50909695505050505050565b634e487b7160e01b600052601160045260246000fd5b808201808211156110cc576110cc6110a3565b92915050565b818103818111156110cc576110cc6110a3565b80516110f081610f12565b919050565b805162ffffff811681146110f057600080fd5b8051600281900b81146110f057600080fd5b80516001600160801b03811681146110f057600080fd5b6000806000806000806000806000806000806101808d8f03121561115457600080fd5b8c516bffffffffffffffffffffffff8116811461117057600080fd5b9b5061117e60208e016110e5565b9a5061118c60408e016110e5565b995061119a60608e016110e5565b98506111a860808e016110f5565b97506111b660a08e01611108565b96506111c460c08e01611108565b95506111d260e08e0161111a565b94506101008d015193506101208d015192506111f16101408e0161111a565b91506112006101608e0161111a565b90509295989b509295989b509295989b565b6000806040838503121561122557600080fd5b505080516020909101519092909150565b634e487b7160e01b600052603260045260246000fd5b634e487b7160e01b600052603160045260246000fd5b600060018201611274576112746110a3565b506001019056fe9b779b17422d0df92223018b32b4d1fa46e071723d6817e2486d003becc55f00a26469706673582212209d2174ca8a00c9878374479d6335f3965f237c4aa73f863fe64683b3d5a570ca64736f6c63430008140033",
  "devdoc": {
    "details": "Implements IERC721Receiver to accept NFT transfers",
    "errors": {
      "InvalidInitialization()": [
        {
          "details": "The contract is already initialized."
        }
      ],
      "NotInitializing()": [
        {
          "details": "The contract is not initializing."
        }
      ],
      "OwnableInvalidOwner(address)": [
        {
          "details": "The owner is not a valid owner account. (eg. `address(0)`)"
        }
      ],
      "OwnableUnauthorizedAccount(address)": [
        {
          "details": "The caller account is not authorized to perform an operation."
        }
      ],
      "ReentrancyGuardReentrantCall()": [
        {
          "details": "Unauthorized reentrant call."
        }
      ]
    },
    "events": {
      "FeesClaimed(address,uint256,uint256,uint256)": {
        "params": {
          "amount0": "Amount of token0 fees claimed",
          "amount1": "Amount of token1 fees claimed",
          "owner": "Address claiming the fees",
          "tokenId": "NFT position ID"
        }
      },
      "Initialized(uint64)": {
        "details": "Triggered when the contract has been initialized or reinitialized."
      },
      "NFTLocked(address,uint256)": {
        "params": {
          "owner": "Address of the NFT owner",
          "tokenId": "ID of the locked NFT"
        }
      },
      "NFTUnlocked(address,uint256,address)": {
        "params": {
          "owner": "Address of the NFT owner",
          "tokenId": "ID of the unlocked NFT"
        }
      }
    },
    "kind": "dev",
    "methods": {
      "acceptOwnership()": {
        "details": "The new owner accepts the ownership transfer."
      },
      "checkAvailableFees(uint256)": {
        "params": {
          "tokenId": "The NFT position ID"
        },
        "returns": {
          "amount0": "Available fees for token0",
          "amount1": "Available fees for token1"
        }
      },
      "claimFees(uint256)": {
        "params": {
          "tokenId": "The NFT position ID"
        }
      },
      "getNFTsByOwner(address)": {
        "params": {
          "owner": "The address to query"
        },
        "returns": {
          "_0": "Array of NFT IDs owned by the address"
        }
      },
      "getRemainingLockTime(uint256)": {
        "params": {
          "tokenId": "The NFT ID to check"
        },
        "returns": {
          "_0": "Remaining time in seconds, 0 if lock period has ended"
        }
      },
      "isNFTLocked(uint256)": {
        "params": {
          "tokenId": "The NFT ID to check"
        },
        "returns": {
          "_0": "true if NFT is locked"
        }
      },
      "lockNFT(uint256,address)": {
        "params": {
          "tokenId": "The ID of the NFT to lock"
        }
      },
      "owner()": {
        "details": "Returns the address of the current owner."
      },
      "pendingOwner()": {
        "details": "Returns the address of the pending owner."
      },
      "renounceOwnership()": {
        "details": "Leaves the contract without owner. It will not be possible to call `onlyOwner` functions. Can only be called by the current owner. NOTE: Renouncing ownership will leave the contract without an owner, thereby disabling any functionality that is only available to the owner."
      },
      "transferOwnership(address)": {
        "details": "Starts the ownership transfer of the contract to a new account. Replaces the pending transfer if there is one. Can only be called by the current owner. Setting `newOwner` to the zero address is allowed; this can be used to cancel an initiated ownership transfer."
      },
      "unlockNFT(uint256,address)": {
        "params": {
          "tokenId": "The ID of the NFT to unlock"
        }
      }
    },
    "title": "Lock",
    "version": 1
  },
  "userdoc": {
    "errors": {
      "LockPeriodNotEnded()": [
        {
          "notice": "Thrown when lock period has not ended"
        }
      ],
      "NFTAlreadyLocked()": [
        {
          "notice": "Thrown when NFT is already locked"
        }
      ],
      "NFTNotLocked()": [
        {
          "notice": "Thrown when NFT is not locked"
        }
      ],
      "NotNFTOwner()": [
        {
          "notice": "Thrown when caller is not the NFT owner"
        }
      ]
    },
    "events": {
      "FeesClaimed(address,uint256,uint256,uint256)": {
        "notice": "Emitted when fees are claimed"
      },
      "NFTLocked(address,uint256)": {
        "notice": "Emitted when an NFT is locked"
      },
      "NFTUnlocked(address,uint256,address)": {
        "notice": "Emitted when an NFT is unlocked"
      }
    },
    "kind": "user",
    "methods": {
      "checkAvailableFees(uint256)": {
        "notice": "Check available fees for a locked NFT position"
      },
      "claimFees(uint256)": {
        "notice": "Claim accumulated fees for a locked NFT position"
      },
      "getNFTsByOwner(address)": {
        "notice": "Get all NFTs owned by an address"
      },
      "getRemainingLockTime(uint256)": {
        "notice": "Get remaining lock time for an NFT"
      },
      "initialize()": {
        "notice": "Initialize the lock contract"
      },
      "isNFTLocked(uint256)": {
        "notice": "Check if an NFT is currently locked"
      },
      "lockNFT(uint256,address)": {
        "notice": "Lock a Uniswap V3 LP NFT"
      },
      "onERC721Received(address,address,uint256,bytes)": {
        "notice": "Implements IERC721Receiver"
      },
      "unlockNFT(uint256,address)": {
        "notice": "Unlock an NFT after the lock period"
      }
    },
    "notice": "Contract for locking Uniswap V3 LP NFTs and managing fee claims",
    "version": 1
  },
  "storageLayout": {
    "storage": [
      {
        "astId": 10371,
        "contract": "contracts/Lock.sol:Lock",
        "label": "positionManager",
        "offset": 0,
        "slot": "0",
        "type": "t_contract(INonfungiblePositionManager)11615"
      },
      {
        "astId": 10376,
        "contract": "contracts/Lock.sol:Lock",
        "label": "lockedNFTs",
        "offset": 0,
        "slot": "1",
        "type": "t_mapping(t_uint256,t_struct(LockedNFT)10368_storage)"
      },
      {
        "astId": 10381,
        "contract": "contracts/Lock.sol:Lock",
        "label": "ownerNFTs",
        "offset": 0,
        "slot": "2",
        "type": "t_mapping(t_address,t_array(t_uint256)dyn_storage)"
      }
    ],
    "types": {
      "t_address": {
        "encoding": "inplace",
        "label": "address",
        "numberOfBytes": "20"
      },
      "t_array(t_uint256)dyn_storage": {
        "base": "t_uint256",
        "encoding": "dynamic_array",
        "label": "uint256[]",
        "numberOfBytes": "32"
      },
      "t_bool": {
        "encoding": "inplace",
        "label": "bool",
        "numberOfBytes": "1"
      },
      "t_contract(INonfungiblePositionManager)11615": {
        "encoding": "inplace",
        "label": "contract INonfungiblePositionManager",
        "numberOfBytes": "20"
      },
      "t_mapping(t_address,t_array(t_uint256)dyn_storage)": {
        "encoding": "mapping",
        "key": "t_address",
        "label": "mapping(address => uint256[])",
        "numberOfBytes": "32",
        "value": "t_array(t_uint256)dyn_storage"
      },
      "t_mapping(t_uint256,t_struct(LockedNFT)10368_storage)": {
        "encoding": "mapping",
        "key": "t_uint256",
        "label": "mapping(uint256 => struct Lock.LockedNFT)",
        "numberOfBytes": "32",
        "value": "t_struct(LockedNFT)10368_storage"
      },
      "t_struct(LockedNFT)10368_storage": {
        "encoding": "inplace",
        "label": "struct Lock.LockedNFT",
        "members": [
          {
            "astId": 10361,
            "contract": "contracts/Lock.sol:Lock",
            "label": "owner",
            "offset": 0,
            "slot": "0",
            "type": "t_address"
          },
          {
            "astId": 10363,
            "contract": "contracts/Lock.sol:Lock",
            "label": "tokenId",
            "offset": 0,
            "slot": "1",
            "type": "t_uint256"
          },
          {
            "astId": 10365,
            "contract": "contracts/Lock.sol:Lock",
            "label": "isLocked",
            "offset": 0,
            "slot": "2",
            "type": "t_bool"
          },
          {
            "astId": 10367,
            "contract": "contracts/Lock.sol:Lock",
            "label": "lockedAt",
            "offset": 0,
            "slot": "3",
            "type": "t_uint256"
          }
        ],
        "numberOfBytes": "128"
      },
      "t_uint256": {
        "encoding": "inplace",
        "label": "uint256",
        "numberOfBytes": "32"
      }
    }
  }
}